:100000000C94300A0C94E15B0C94B65B0C948B5B03
:100010000C94605B0C94355B0C940A5B0C94DF5A77
:100020000C94B45A0C94610A0C94610A0C94610A01
:100030000C94610A0C94610A0C94610A0C94610A94
:100040000C94610A0C94610A0C94610A0C94610A84
:100050000C94610A0C94610A0C94610A0C946A5A1B
:100060000C94610A0C94345A0C940A5A0C94610A48
:100070000C94610A0C94610A0C94610A0C94610A54
:100080000C94610A0C94610A0C94610A0C94610A44
:100090000C94610A0C94610A0C94610A0C940C5C37
:1000A0000C94610A0C94610A0C94610A0C94610A24
:1000B0000C94610A0C94610A0C94610A0C94610A14
:1000C0000C94610A0C94610A0C94610A0C94610A04
:1000D0000C94610A0C94610A0C94610A0C94610AF4
:1000E0000C94610A0C9471360C94242F0C940D1A04
:1000F0000C9486190C94FF200C94F00F0C946D0D49
:100100000C946E0C0C946D510C94FA1A0C942B1BDD
:100110000C94170B0C946A120C947C590C94680C78
:100120000C941E100C944C0C0C94F31A0C94534D1C
:100130000C946D0C0C94FB1A0C94532D0C943E1BD8
:100140000C9446510C94F70F0C945E120C942D0CE9
:100150000C94330C0C9404260C94284B0C94B70D7F
:100160000C943E2F0C94354C0C9446110C94630A5D
:100170000C9401260C948E1B0C94482F0C94E04E8A
:100180000C943B0C0C942D1B0C94640C0C94660A80
:100190000C94221B0C94520C0C94370C0C94BE4DF6
:1001A0000C94720C0C94BE0B0C94CF350C94861BE3
:1001B0000C94694B0C94E9200C949A570C941A2CCB
:1001C0000C94312F0C94600C0C94381B0C947B1AFB
:1001D0000C94B90F0C94272F0C94601A0C944C1BA0
:1001E0000C94EC4D0C9428510C943A210C9453101F
:1001F0000C943F0C0C94BD230C942B0B0C94345397
:100200000C943D4E0C943B2F0C94DB0A0C944E1E28
:100210000C940E1A0C9456100C94891B0C942C40C0
:100220000C9440520C94575D0C94A0590C940158B6
:100230000C94480C0C94F41A0C94DE2E0C94055873
:100240000C9470480C941B200C94884D0C94F71A55
:100250000C94FF450C948B1B0C94560C0C94652C41
:100260000C94BA230C94924E0C94042F0C94080B0B
:100270000C94420C0C94D21A0C94311A0C945A0C13
:100280000C941F100C94E52C0C94E74D0C949F6774
:100290000C94C44C0C946A510C94831B0C94710BF9
:1002A0000C94390B0C946E0F0C94A01A0C94C2553C
:1002B0000C94871E46726F6D20666F6C6465723A8F
:1002C0002025730A0053656C656374656420666954
:1002D0006C653A2025730A002E2E2E20494E495473
:1002E00020636F6D706C6574650A0053656E646998
:1002F0006E6720494E4954202E2E2E0A0052583A3D
:100300002025732072785F786D69745F6573282586
:1003100030346F290A0A0052583A20494E49542075
:10032000686173202573636C656172656420743D38
:10033000256C756D730A0052583A207761697469AB
:100340006E6720666F7220494E495420746F206397
:100350006C656172202E2E2E20743D256C756D7398
:100360000A0052583A20257320576F726425643A68
:10037000202530336F202530336F0A0052583A2041
:10038000257320576F726425643A202530336F201F
:100390002530336F0A0052583A20257320576F7268
:1003A0006425643A202530336F202530336F0A00EE
:1003B00052583A20257320576F726425643A2025DD
:1003C00030336F202530336F0A0052583A2025739E
:1003D00020706F733D256C752E206C656E3D257504
:1003E0002E0A0052583A2025732074613D2530337F
:1003F0006F0A0052583A2025732073613D2530332F
:100400006F0A0052583A202573207A65726F206671
:10041000696C6C20627566666572202530336F2EBC
:100420002E2530336F0A000A000A00202530346F71
:1004300000202530336F0052583A20257320253094
:10044000336F3A000A000A00202530346F0020255F
:1004500030336F0052583A202573202530336F3ADD
:100460000052583A2025732077633D2530336F20A2
:1004700057434F56460A0052583A20257320776357
:100480003D2530336F0A0052583A20257320756E8F
:1004900069743D256F2064656E3D25630A005258DE
:1004A0003A20636D643D2530346F0A000A00202035
:1004B00020202072782E6472765B25645D2E6C6538
:1004C0006E203D2025752E0A0020202020207278E5
:1004D0002E6472765B25645D2E706F73203D20253F
:1004E0006C752E0A0020202020202072782E647245
:1004F000765B25645D2E7361203D202530336F0AC5
:100500000020202020202072782E6472765B2564E3
:100510005D2E7461203D202530336F0A002020209D
:10052000202072782E6472765B25645D2E64656E81
:10053000203D2025630A00202020202072782E6490
:1005400072765B25645D2E726479203D2025630AF6
:10055000002020202072782E6472765B25645D2E48
:100560006D6F6465203D205225630A002020202005
:1005700072782E6472765B25645D2E6E616D6520E7
:100580003D20272573270A000A00202072782E6656
:10059000636E2E6E616D65203D2025730A0020205C
:1005A00072782E66636E2E636F6465203D20256F22
:1005B0000A002020202072782E74696D696E6720F1
:1005C0003D20256F0A002020202072782E6572724F
:1005D000636E74203D2025752E0A00202020207295
:1005E000782E636D64636E74203D2025752E0A009D
:1005F00020202020202072782E74797065203D20E4
:1006000052583025640A0020202020202072782EA5
:10061000756E6974203D20256F0A0020202020205F
:10062000202072782E64656E203D2025630A00200C
:1006300020202020202072782E6C656E203D202501
:10064000752E0A002020202020202072782E706F26
:1006500073203D20256C752E0A00202020202020AC
:10066000202072782E7361203D202530336F0A00E0
:10067000202020202020202072782E7461203D2010
:100680002530336F0A00202020202020202072787F
:100690002E7463203D202530336F0A002020202057
:1006A0002020202072782E7763203D202530336F64
:1006B0000A00202020202020202072782E65632030
:1006C0003D202530346F0A002020202020202020CB
:1006D00072782E6573203D202530346F0A0020206B
:1006E00020202020202072782E6373203D2025308A
:1006F000366F0A000A00202020202020692F662063
:1007000072756E203D20256F0A0020202020206970
:100710002F6620696E6974203D20256F0A00202015
:10072000202020692F66206D6F6465203D20257391
:100730000A0020202020692F6620776964746820D1
:100740003D2025642E0A000A0A2D2D2D2052582006
:10075000456D756C61746F722053746174652044CB
:10076000756D70202D2D2D0A0A003F556E6B6E6F32
:10077000776E20636F6D6D616E643F0A000A4E6F85
:1007800074653A20636861727320696E202829209D
:10079000617265206F7074696F6E616C2E204361A9
:1007A000736520646F6573206E6F74206D6174745F
:1007B00065722E0A0020206828656C702920202090
:1007C00020202020202D2D20646973706C617920F9
:1007D0007468697320746578740A00202077287221
:1007E00069746529202020202020202D2D2077725B
:1007F0006974652063757272656E7420636F6E66CE
:10080000696775726174696F6E20696E746F2074A8
:1008100068652053455455502E494E492066696CF1
:10082000650A0020206B28696C6C2920202020207C
:100830002020202D2D206B696C6C2074686520654C
:100840006D756C61746F72202872657365742061B8
:100850006E6420726573746172742C206C696B65B0
:1008600020726573657420627574746F6E290A0056
:10087000202069286E697429202020202020202033
:100880002D2D20696E697469616C697A6520656DCA
:10089000756C61746F7220286C696B6520756E6968
:1008A00062757320494E4954290A0020207028722D
:1008B000696E7429202020202020202D2D20707288
:1008C000696E742066756C6C20656D756C617469F9
:1008D0006F6E2073746174650A0020207328686F3E
:1008E000772920202020202020202D2D2073686FA4
:1008F000772063757272656E7420756E69742066F8
:10090000696C656E616D652061737369676E6D6595
:100910006E74730A0020206C2869737429202020CB
:1009200020202020202D2D206C69737420616C6C98
:100930002066696C6573206F6E207468652053446F
:1009400020636172640A002020662046494C454EAF
:10095000414D45202020202D2D20657874656E6442
:100960002F7472756E636174652066696C652046CC
:10097000494C454E414D4520746F20646F75626C43
:10098000652064656E736974792073697A650A00FD
:100990002020652046494C454E414D4520202020D1
:1009A0002D2D20657874656E642F7472756E636189
:1009B00074652066696C652046494C454E414D453D
:1009C00020746F2073696E676C652064656E73694F
:1009D00074792073697A650A002020722046494C98
:1009E000454E414D45202020202D2D2072656D6FF4
:1009F00076652066696C652046494C454E414D45FB
:100A00000A0020202020202020202020202020201C
:100A100020202020203020617320666173742061C3
:100A20007320706F737369626C653B203220736949
:100A30006D756C61746573207265616C20525830FD
:100A4000322064726976650A0020207428696D6915
:100A50006E6729204E202020202D2D2074696D697D
:100A60006E67206D6F64652C20303D666173742C59
:100A700020313D6D656469756D2C20323D6E6F725D
:100A80006D616C3B2064656661756C7420300A0092
:100A9000202064286562756729204E2020202020B0
:100AA0002D2D206465627567206C6576656C2C2041
:100AB000303D6E6F6E652C20333D6D61783B206458
:100AC000656661756C7420310A00323D52583032CF
:100AD0002B616E793B2064656661756C7420320A07
:100AE0000020206D286F646529204E2020202020C2
:100AF000202D2D2073657420656D756C6174696F90
:100B00006E206D6F64652C20303D525830312B5271
:100B10005831312C20313D525830312B5258384504
:100B20002C200020206E286F29204E2020202020FD
:100B30002020202D2D2073657420756E6974204E41
:100B40002066696C6520726561642D6F6E6C790A30
:100B50000020207928657329204E20202020202085
:100B6000202D2D2073657420756E6974204E2066CB
:100B7000696C6520726561642D77726974652028DF
:100B800064656661756C74290A002020202020208D
:100B90002020202020202020202020202066696C7A
:100BA00065206E616D6520276E6F6E652720286158
:100BB0006E7920636173652920666F72206E6F20E5
:100BC0006469736B2070726573656E740A0020200F
:100BD000312046494C454E414D45202020202D2DA9
:100BE0002073657420756E697420312066696C65A8
:100BF00020746F2046494C454E414D453B2064656D
:100C00006661756C74205258312E44534B0A002093
:100C100020202020202020202020202020202020D4
:100C2000202066696C65206E616D6520276E6F6E91
:100C300065272028616E7920636173652920666FBE
:100C400072206E6F206469736B2070726573656EBD
:100C5000740A002020302046494C454E414D452025
:100C60002020202D2D2073657420756E697420302E
:100C70002066696C6520746F2046494C454E414D95
:100C8000453B2064656661756C74205258302E4473
:100C9000534B0A000A436F6D6D616E647320617679
:100CA00061696C61626C653A0A0A002A2A2A20533B
:100CB000484F554C44204E455645522047455420F8
:100CC000484552452A2A2A0A000A2A2A2A20526519
:100CD000626F6F74696E672074686520656D756CEE
:100CE00061746F72202A2A2A0A002E2E2E20494E65
:100CF000495420636F6D706C6574650A0053656EAE
:100D000064696E6720494E4954202E2E2E0A0053E6
:100D1000657474696E672074696D696E67206D6FA4
:100D200064653A20256420282573290A00437572DA
:100D300072656E742074696D696E67206D6F64658D
:100D40003A20256420282573290A005365747469A4
:100D50006E67206465627567206D6F64653A202553
:100D60006420282573290A0043757272656E742009
:100D70006465627567206D6F64653A20256420287C
:100D80002573290A0053657474696E6720656D7553
:100D90006C6174696F6E206D6F64653A2025642004
:100DA000282573290A0043757272656E7420656D7B
:100DB000756C6174696F6E20747970653A20256472
:100DC00020282573290A0043757272656E742066A7
:100DD000696C655B25645D3A2027257327202825EB
:100DE00073290A004E6F20737563682066696C650D
:100DF0000A0052656D6F7665642066696C653A20FD
:100E0000272573270A0053657474696E6720666925
:100E10006C655B25645D206D6F64653A2025730AFF
:100E20000053657474696E672066696C655B256440
:100E30005D206D6F64653A2025730A005472756EEB
:100E400063617465642066696C653A2027257327A1
:100E500020746F20256C752E2062797465732028AC
:100E60004444290A00457874656E646564206669A7
:100E70006C653A202725732720746F20256C752E0A
:100E800020627974657320284444290A00556E63F2
:100E900068616E6765642066696C653A2027257312
:100EA0002720697320256C752E2062797465732064
:100EB000284444290A00556E6368616E67656420A2
:100EC00066696C653A202725732720697320256C95
:100ED000752E20627974657320287573652045200E
:100EE000636F6D6D616E64290A005472756E636183
:100EF0007465642066696C653A2027257327207421
:100F00006F20256C752E20627974657320285344F8
:100F1000290A00457874656E6465642066696C65AD
:100F20003A202725732720746F20256C752E2062A8
:100F30007974657320285344290A00556E636861EB
:100F40006E6765642066696C653A202725732720E3
:100F5000697320256C752E2062797465732028537F
:100F600044290A00556E6368616E6765642066698E
:100F70006C653A202725732720697320256C752E10
:100F80002062797465732028757365204620636F2D
:100F90006D6D616E64290A0043757272656E74200E
:100FA00066696C655B25645D3A20272573270A0016
:100FB0005741524E494E473A2066696C6520736925
:100FC0007A65204444206D6F756E74656420696E87
:100FD000206D6F64652052583031210A005741520C
:100FE0004E494E473A2066696C652073697A6520E0
:100FF0006E6F74205344206F72204444202E2E2E96
:101000002075736520452F4620636F6D6D616E649A
:1010100020746F20636F7272656374210A005365D8
:101020007474696E672066696C655B25645D3A203F
:10103000272573270A00557064617465642066690A
:101040006C653A202725732720746F20256C752E38
:101050002062797465730A00557064617465642058
:1010600066696C653A202725732720746F20256CEC
:10107000752E2062797465730A000A005E550A00B5
:1010800000002200250028002B002E003100340033
:1010900002010000050108010B01000020002300EF
:1010A000260029002C002F0032000001000003015F
:1010B0000601090100000A0B02090C0D0E080703C6
:1010C000040100000000000000000000000000001B
:1010D0000000000000000000000000000000000010
:1010E00012111000000000000000000000000000CD
:1010F00000000000000000000000000021002400AB
:1011000027002A002D0030003300010100000401F7
:1011100007010A01010210202008081020401020B9
:1011200040800201020108040201010204081020AB
:1011300040808040201008040201800402018040A9
:101140002010080402010804020101020408102012
:1011500040800102040810204080050505050705B0
:1011600008080808020202020A0A08080404040423
:10117000010101010101010103030303030303034F
:10118000040707070C0C0C0C0C0C0C0C02020202DE
:1011900006060606060606060B0B0B0B0B0B0B0BC7
:1011A0002C3058005344206572726F72436F64652F
:1011B0003A203058004E6F20636172642C207772A1
:1011C0006F6E6720636869702073656C6563742057
:1011D00070696E2C206F72205350492070726F62BC
:1011E0006C656D3F0043616E2774206163636573B6
:1011F0007320534420636172642E20446F206E6F0D
:1012000074207265666F726D61742E004E6F20657A
:1012100072726F7220666F756E642E0043616E2766
:1012200074206F70656E20726F6F742064697265D0
:1012300063746F72792E00496E76616C6964206602
:101240006F726D61742C207265666F726D617420AF
:1012500053442E0053443A20766F6C53697A6542AA
:10126000797465733D256C754D420A0053443A20EC
:10127000766F6C436C7573746572436F756E743DF5
:10128000256C750A0053443A20766F6C4279746578
:1012900073506572436C75737465723D256C750A85
:1012A0000053443A20766F6C547970653D46415442
:1012B00025640A0053443A206361726453697A6575
:1012C0003D256C754D420A0053443A2063617264B7
:1012D000547970653D534425640A0053443A206CA8
:1012E000696256657273696F6E3D25642E25642EA2
:1012F00025640A002E2E2E20736574757020666991
:101300006C652070726F63657373696E6720636FBD
:101310006D706C657465210A0A0050726F636573A5
:1013200073696E672073657475702066696C6520DB
:1013300027257327202E2E2E0A00496E69746961B5
:101340006C697A6174696F6E20636F6D706C65741F
:10135000652E0A004E6F2076616C6964204D6963CA
:10136000726F5344206361726420646574656374B2
:1013700065642E0A0056616C6964204D6963726F62
:1013800053442063617264206465746563746564AA
:101390002E0A000A5258303220456D756C61746F08
:1013A0007220257320284944452025752E25752E49
:1013B00025752F67636320257329202D2025732031
:1013C0002D2025730A00456E746572204275747471
:1013D0006F6E20507265737365640A00446F776E98
:1013E00020427574746F6E20507265737365640A61
:1013F00000557020427574746F6E2050726573735F
:1014000065640A004D656E752F45736320427574DF
:10141000746F6E20507265737365640A00530A001E
:10142000542025640A004D2025640A0044202564C8
:101430000A0025632025640A0025642025730A001C
:1014400047656E65726174696E6720736574757047
:101450002066696C6520272573270A00575D9F6702
:1014600011241FBECFEFD1E2DEBFCDBF00E00CBF25
:1014700023E1A4EFB7E001C01D92A137B207E1F765
:1014800017E0A0E0B2E0E6EFFCED00E00BBF02C029
:1014900007900D92A43FB107D9F71AE0CFE2DAE046
:1014A00000E006C021970109802FFE010E94556BC4
:1014B000CE32D10780E00807A9F70E94A4610C94FE
:1014C000696E0C94000090E080E0089590E080E068
:1014D0000895CF92DF92EF92FF929A016C01EE2471
:1014E000FF24CD28CE28CF2809F434C0DC01CB015D
:1014F00033E3839F8827030E811D202D939F992717
:10150000800D911DA39FAA27900DA11DB39FBB27FE
:10151000A00DB11D1124280F891F9A1FAB1FB11DEB
:10152000290F8A1F9B1FA11DB11D2B0F811D911D0E
:10153000A11DB11DB695A7959795879527953AE07A
:10154000239F212D1124BC01CD01205DFA0122939E
:10155000AF01C3CFC90101976A307105E8F033E3E9
:10156000639F6627030E611D202D739F7727600DF3
:10157000711D1124260F671F711D270F611D711D1D
:101580007695679527953AE0239F212D1124205DBC
:10159000FC0120839C01DECF605DFC016083FF9035
:1015A000EF90DF90CF900895DC01ED91FC910190D8
:1015B000F081E02D1994AF92BF92CF92DF92EF921B
:1015C000FF920F931F93CF93DF936C017B018B01ED
:1015D000040F151FEB015E01AE18BF08C017D1073D
:1015E00059F06991D601ED91FC910190F081E02DC7
:1015F000C6011995892B79F7C501DF91CF911F910C
:101600000F91FF90EF90DF90CF90BF90AF90089533
:10161000FC01538D448D252F30E0842F90E0821BF8
:10162000930B541710F0CF96089501970895FC017D
:10163000918D828D981761F0A28DAE0FBF2FB11DD5
:101640005D968C91928D9F5F9F73928F90E008952D
:101650008FEF9FEF0895FC01918D828D981731F0E7
:10166000828DE80FF11D858D90E008958FEF9FEF3B
:101670000895FC01918D228D892F90E0805C9F4F11
:10168000821B91098F73992708958BEB9CE00E9430
:10169000390B21E0892B09F420E0822F0895FC0109
:1016A000A48DA80FB92FB11DA35ABF4F2C91848DC3
:1016B00090E001968F739927848FA689B7892C9320
:1016C000A089B1898C91837080648C93938D848D73
:1016D000981306C00288F389E02D80818F7D808376
:1016E0000895EF92FF920F931F93CF93DF93EC0136
:1016F00081E0888F9B8D8C8D98131AC0E889F989B9
:10170000808185FF15C09FB7F894EE89FF896083BB
:10171000E889F98980818370806480839FBF81E03C
:1017200090E0DF91CF911F910F91FF90EF9008957E
:10173000F62E0B8D10E00F5F1F4F0F731127E02E59
:101740008C8D8E110CC00FB607FCFACFE889F98991
:10175000808185FFF5CFCE010E944F0BF1CFEB8D3D
:10176000EC0FFD2FF11DE35AFF4FF0829FB7F89465
:101770000B8FEA89FB8980818062CFCFCF93DF9383
:10178000EC01888D8823B9F0AA89BB89E889F98999
:101790008C9185FD03C0808186FD0DC00FB607FCCE
:1017A000F7CF8C9185FFF2CF808185FFEDCFCE0101
:1017B0000E944F0BE9CFDF91CF91089580E090E038
:1017C000892B29F00E94450B81110E94000080E0C6
:1017D00090E0892B49F080E090E0892B29F00E946D
:1017E000000081110E94000080E090E0892B49F008
:1017F00080E090E0892B29F00E94000081110E9476
:10180000000080E090E0892B49F080E090E0892B97
:1018100029F00E94000081110C940000089581506D
:10182000823108F05AC0E82FF0E08827E55EF34FD8
:101830008F4F0C94556B3B0C3F0C2D0C330C370C1D
:101840006D0C420C480C4C0C520C560C5A0C600C93
:10185000640C6D0C680C6E0C720C809180008F779C
:10186000809380000895809180008F7DF9CF8091D2
:101870008000877FF5CF84B58F7784BD089584B5C8
:101880008F7DFBCF8091B0008F778093B00008955B
:101890008091B0008F7DF9CF809190008F778093F9
:1018A00090000895809190008F7DF9CF80919000F5
:1018B000877FF5CF8091A0008F778093A000089557
:1018C0008091A0008F7DF9CF8091A000877FF5CF18
:1018D000809120018F7780932001089580912001CD
:1018E0008F7DF9CF80912001877FF5CFCF93DF9354
:1018F000282F30E0F901EC54FF4E8491F901EC5EA1
:10190000FE4ED491F901E65AFE4EC491CC23A1F0CB
:1019100081110E940F0CEC2FF0E0EE0FFF1FE65636
:10192000FF4EA591B491EC91ED2381E090E009F494
:1019300080E0DF91CF91089580E090E0FACF1F938F
:10194000CF93DF93282F30E0F901EC54FF4E8491C0
:10195000F901EC5EFE4ED491F901E65AFE4EC491B7
:10196000CC23A9F0162F81110E940F0CEC2FF0E070
:10197000EE0FFF1FE058FF4EA591B4918FB7F8947A
:10198000EC91111108C0D095DE23DC938FBFDF915D
:10199000CF911F910895DE2BF8CFCF93DF9390E086
:1019A000FC01EC5EFE4E2491865A9E4EFC01849111
:1019B0008823C9F090E0880F991FFC01E650FF4E84
:1019C000A591B491FC01E058FF4EC591D4916111ED
:1019D0000DC09FB7F8948C91209582238C938881B9
:1019E000282328839FBFDF91CF910895623051F45F
:1019F0009FB7F8943C91822F809583238C93E88144
:101A00002E2BEFCF8FB7F894EC912E2B2C938FBF0A
:101A1000EACF3FB7F8948091D2089091D308A09173
:101A2000D408B091D50826B5A89B05C02F3F19F062
:101A30000196A11DB11D3FBFBA2FA92F982F88274E
:101A4000BC01CD01620F711D811D911D42E0660F29
:101A5000771F881F991F4A95D1F708958F929F92FB
:101A6000AF92BF92CF92DF92EF92FF926B017C0117
:101A70000E94090D4B015C01C114D104E104F10481
:101A8000B9F00E94090D681979098A099B09683E15
:101A900073408105910580F321E0C21AD108E10865
:101AA000F10888EE880E83E0981EA11CB11CE4CFDB
:101AB000FF90EF90DF90CF90BF90AF909F908F906E
:101AC00008952FB7F8946091CE087091CF08809157
:101AD000D0089091D1082FBF08950895DC01ED91B1
:101AE000FC910088F189E02D1994DC01ED91FC91C5
:101AF0000190F081E02D1994FF920F931F93CF93E3
:101B0000DF938C01EB01F42E642FDC0111968D9193
:101B10009C910E946E0DDC011296ED91FC91139741
:101B2000268137812C233D23232B71F0ED91FC91ED
:101B30000284F385E02D2F2DA801BE01DF91CF9106
:101B40001F910F91FF90199490E080E0DF91CF9169
:101B50001F910F91FF90089524E06202B0011124BB
:101B6000DC01ED91FC91E60FF71F838108956F92E0
:101B70007F928F929F92AF92CF92DF92EF92FF92DD
:101B80000F931F93CF93DF93EC01F62EEE81FF812D
:101B9000662E660F7708C301880F991F880F991F5B
:101BA0000190F081E02DE80FF91F60814181828171
:101BB0009381042E000C550B062E000C770B8A0126
:101BC000090F111D97FD1A95015011099B01280F4E
:101BD000311D87FD3A9521503109E881F9811F9225
:101BE0000284F385E02D88248394912CA12CD12CA0
:101BF000C12CB0E2EB2ECE011995E881F981028863
:101C0000F389E02D2F2D40E060E0CE011995EE81A3
:101C1000FF81660C771C82819381680E791EF30127
:101C2000118210820F90DF91CF911F910F91FF9041
:101C3000EF90DF90CF90AF909F908F907F906F90BC
:101C400008952F923F924F925F926F927F928F9260
:101C50009F92AF92BF92CF92EF92FF920F931F93FA
:101C6000CF93DF93EC012B015A01122FE881F98108
:101C70000488F589E02D00E021E030E040E061E0FB
:101C800070E0199584E0180210011124D501129614
:101C9000ED91FC91828184FF5EC0912C812CD50155
:101CA000ED91FC910190F081E02DC5011995082E70
:101CB000000C990B881699060CF0D8C0D501ED914F
:101CC000FC910088F189E02D682DC50119953C0132
:101CD000FC0124813581E881F9810488F589E02DB2
:101CE00000E040E061E070E0CE011995D301149668
:101CF0002D913C91E881F9810688F789E02DE12E4C
:101D000040E0682DCE011995F30124813581E881E9
:101D1000F9810488F589E02D40E061E070E0CE01B2
:101D20001995D301ED91FC910480F581E02DAE81F0
:101D3000BF810D90BC91A02DA20DB31D1296EC9009
:101D4000C12E082D9E0140E0B201C3011995BFEFDD
:101D50008B1A9B0AA4CFE881F9810088F189E02DD4
:101D6000612FCE011995E881F9810288F389E02D70
:101D7000212F40E060E0CE011995712C612F8E81FA
:101D80009F810E94AC0D78160CF070C0D501ED91CA
:101D9000FC910190F081E02DC501199578160CF0A9
:101DA00065C0D501ED91FC910088F189E02D672D8A
:101DB000C50119954C01FC01E480F580E881F981A9
:101DC0000484F585E02DC12C00E030E020E0412FB7
:101DD000672DCE011995E881F9810288F389E02DFC
:101DE000212F472D60E0CE011995D40114962D9135
:101DF0003C91E881F9810488F589E02D40E061E0BB
:101E000070E0CE011995F40124813581E881F981D2
:101E10000688F789E02DE12E40E0672DCE01199567
:101E2000D40114962D913C91E881F9810488F589BB
:101E3000E02D40E061E070E0CE011995D401ED9114
:101E4000FC910480F581E02DAE81BF810D90BC91A5
:101E5000A02DA20DB31D1296EC90C12E072D9E0150
:101E600040E0B201C4011995739488CFDF91CF91FE
:101E70001F910F91FF90EF90CF90BF90AF909F90E8
:101E80008F907F906F905F904F903F902F9008952C
:101E90000F931F93CF93DF938C01D0E0C0E0D80164
:101EA0008D919C911197C817D9079CF4CE01880F8A
:101EB000991F1296ED91FC91E80FF91F8081918195
:101EC000DC01ED91FC910684F785E02D19952196B2
:101ED000E6CFDF91CF911F910F9108955F926F929E
:101EE0007F928F929F92AF92BF92CF92DF92EF92AA
:101EF000FF920F931F93CF93DF93CDB7DEB76C01A3
:101F0000F62E572E4A013901081519050CF1D60194
:101F1000ED91FC910288F389E02D20E0482D6F2D92
:101F2000C6011995AF2CB52C6A147B046CF0D60150
:101F3000ED91FC910190F081E02D6E2DC601199577
:101F4000BFEFAB1ABB0AF0CF8FEF881A980ADCCF2D
:101F5000C601DF91CF911F910F91FF90EF90DF901D
:101F6000CF90BF90AF909F908F907F906F905F9039
:101F70000895EF92FF920F931F93CF93DF93EC019D
:101F8000F62EE42EE881F9810288F389E02D242FD2
:101F9000462F60E0199510E000E0EE81FF8101908E
:101FA000F081E02D8281082E000C990B081719078B
:101FB0003CF460E2CE010E94D40A0F5F1F4FEDCFC8
:101FC000E881F9810288F389E02D2E2D4F2D60E004
:101FD000CE01DF91CF911F910F91FF90EF90199457
:101FE000CF93DF93CDB7DEB7DF91CF910895EF9216
:101FF000FF920F931F93CF93DF93EC01142F79017E
:10200000E881F9810488F589E02D64E070E0199594
:10201000E881F9810190F081E02D60E2112331F037
:102020006091610DEF2811F06091600DCE01DF919C
:10203000CF911F910F91FF90EF9019940895BF9247
:10204000CF92DF92EF92FF920F931F93CF93DF9384
:102050007C018B01B42EFB01C42E440FDD08EF017F
:102060002196608161110EC0C01BD10B8C2F815055
:10207000DF91CF911F910F91FF90EF90DF90CF9064
:10208000BF900895BB2029F0E01BF10BEC15FD0576
:102090005CF7D701ED91FC910190F081E02DC70133
:1020A0001995FE01DCCF80E0089508957F928F920C
:1020B0009F92AF92BF92CF92DF92EF92FF920F93D7
:1020C0001F93CF93DF93EC015B017A01822E1E8276
:1020D000EA81FB81828193816C0124E1C222DD24AB
:1020E000C114D10429F110E000E0E881F9810190E8
:1020F000F081E02DCE011995082E000C990B0817E0
:1021000019070CF0B5C0E881F9810088F189E02D4C
:10211000602FCE011995DC01ED91FC910280F381D5
:10212000E02D20E0A701B50119950F5F1F4FDDCF0E
:10213000DB011396ED91FC919780B92D25E0B20259
:102140008001112482FF13C084819581B8016550FC
:102150007109680F791FDB0111968D919C91DC014B
:10216000ED91FC910280F381E02D282D199560E01E
:10217000F701868197810E94AC0DEA81FB81208561
:102180003185D5011396ED91FC9191E021FD0CC0B4
:102190009085992309F46AC0369527953695279539
:1021A000B1E02B27922F917024813581020F131FEC
:1021B000D8011196ED91FC910280F381E02D4281CE
:1021C0005381882009F454C0292D990C330B447194
:1021D000552761E070E0452B11F470E060E0261BAC
:1021E000370BF70144815581240F351FD9017C90AD
:1021F000882E891A082C000C9908172D1C0DC8145C
:10220000D904B4F5E881F9810190F081E02DCE0187
:10221000199518176CF5E881F9810088F189E02D8E
:10222000612FCE011995DC01ED91FC910280F381C3
:10223000E02D20E0A701B5011995E881F98100881A
:10224000F189E02D612FCE011995DC01ED91FC9112
:102250000680F781E02D00E020E0A701B501199587
:10226000811106C0BFEFCB1ADB0AC7CF90E09CCF2D
:10227000DF91CF911F910F91FF90EF90DF90CF9062
:10228000BF90AF909F908F907F9008953F924F9214
:102290005F926F927F928F929F92AF92BF92CF92F6
:1022A000DF92EF92FF920F931F93CF93DF9300D0B3
:1022B0001F92CDB7DEB7DC0116963C903110FBC003
:1022C000102F7A016B019C838B83FC010280F381C8
:1022D000E02DFA83E98382819381AC014471552713
:1022E000452B79F1B12CA12CAB81BC81ED91FC91F6
:1022F00011970190F081E02DCD011995082E000C69
:10230000990BA816B9060CF04DC0AB81BC81ED91BC
:10231000FC9111970088F189E02D6A2DCD01199566
:10232000DC01ED91FC910680F781E02D012F20E08A
:10233000A701B60119958111BEC0BFEFAB1ABB0A48
:10234000D3CFFB01418152816B817C81641775077A
:1023500049F5222339F183809480D40117960C919A
:10236000179714964D905C90B5E00B023001112444
:102370005C01E4E0AE22BB2482FF2BC0B3016550B8
:102380007109640D751DDB0111968D919C91DC0125
:10239000ED91FC910680F781E02D012F21E0A7014E
:1023A0001995382E832D0F900F900F900F90DF917D
:1023B000CF911F910F91FF90EF90DF90CF90BF9042
:1023C000AF909F908F907F906F905F904F903F90D5
:1023D000089560E0F701868197810E94AC0DA98184
:1023E000BA8118962D913C9121FD61C0F401908530
:1023F000992309F45EC03695279536952795F1E027
:102400002F272170882E821A402F000F550B460C63
:10241000571CF201A181B28112960D90BC91A02DA2
:1024200012968D919C918471992721E030E0892B3F
:1024300011F430E020E0CA01821B930BD7011496FF
:10244000ED91FC91E80FF91F7080082C000C9908A1
:10245000072D0A0DA814B9040CF0A4CFAB81BC81E0
:10246000ED91FC9111970190F081E02DCD0119952E
:1024700008170CF097CFAB81BC81ED91FC911197BF
:102480000088F189E02D602FCD011995DC01ED91D7
:10249000FC910680F781E02D012F20E0A701B60115
:1024A0001995811108C0BFEFAB1ABB0AD1CF21E04B
:1024B000A9CF20E0A7CF3324339474CFDC01CB0124
:1024C000BA011296ED91FC9113970190F081E02DE5
:1024D000AD011994FC0186810895DC0117962C91B9
:1024E00017971496ED91FC91B5E02B02E00DF11DCC
:1024F0001124818192810895CF93DF93EC010E9492
:102500006D122F81AC81BD8135E02302A00DB11D7C
:102510001124EC01E881F9810088F189E02D6C91AA
:10252000DF91CF91199420918308260F3327331F11
:1025300021323105ECF42091A708FC0190E080E005
:10254000243069F082E00895A09183082191AC01C4
:102550004D59574FA40FB52FB11D2C9301968617D7
:1025600098F380918308680F6093830880E0089552
:1025700081E0089508958FEF9FEF08958FEF9FEF0B
:10258000089580915C0890E0919581959109089556
:10259000CF93DF93CB01EA01642F0E949312CE0107
:1025A000DF91CF910895CF93DF931F92CDB7DEB720
:1025B000698361E0CE0101960E94931281E090E070
:1025C0000F90DF91CF910895CF93DF93EC01E981D4
:1025D000FA81908181819CBD8DBDE981FA8160E0A5
:1025E00082810E949F0C81E08B83DF91CF910895BF
:1025F0008EBD0DB407FEFDCF08958FEF8EBD0DB4D7
:1026000007FEFDCF8EB508950F931F93CF93DF93F1
:10261000EC010E94610D8B010E94FD128F3F69F059
:102620000E94610D601B710BC617D707A8F780E0E9
:10263000DF91CF911F910F91089581E0F9CFCF9352
:10264000DF93FC012381222361F0EC010180F28100
:10265000E02D61E082810E949F0C8FEF0E94F812B2
:102660001B82DF91CF9108950F931F93CF93DF9338
:102670008C01862FEA010E94F81288818EBD898123
:10268000FE013296DE5F0DB407FEFDCF8EBDEC1766
:10269000FD0711F08191F7CF0DB407FEFDCF8FEF4D
:1026A0000E94F8128FEF0E94F8120E94FD12F801AA
:1026B00084838F71853059F087E58083C8010E943B
:1026C0001F1380E0DF91CF911F910F91089581E05A
:1026D000F9CFCF92DF92EF92FF920F931F93CF9398
:1026E000DF93EC018B017A010E94610D6B010E9466
:1026F000FD128C838F3FB1F40E94610D6C197D092E
:10270000693E7340A0F385E58883CE010E941F13C4
:1027100080E0DF91CF911F910F91FF90EF90DF90BC
:10272000CF9008958E3F11F080E5EECFE1E0EE1AF4
:10273000F1088FEF8EBDF8012FEF0DB407FEFDCF2E
:102740008EB52EBD8193CF01801B910B8E159F05F9
:10275000A0F30DB407FEFDCF8EB50E0D1F1DF801C1
:1027600080831C820E94FD120E94FD1281E0D1CF65
:10277000DF92EF92FF920F931F93CF93DF938C0121
:10278000C62FD22FF32EE42ED52EFC01838181118A
:1027900003C0C8010E94E412CC2321F08CE291E036
:1027A0000E9404138C2F80640E94F8128D2D0E94C9
:1027B000F8128E2D0E94F8128F2D0E94F8128D2F84
:1027C0000E94F81287E8C11101C085E90E94F81241
:1027D0000E94FD12CBE00E94FD12F801848387FF66
:1027E00002C0C150C1F7DF91CF911F910F91FF90AF
:1027F000EF90DF9008950F931F93CF93DF93EC0139
:1028000089018D81833039F089E0440F551F661F9F
:10281000771F8A95D1F79A01AB0168E1CE010E943A
:10282000B813882339F082E38883CE010E941F13F6
:1028300010E021C0A8016EEFCE010E94341388235E
:10284000A1F380ED97E00E940413182F8AE511236D
:1028500059F320E030E0A9016DE0CE010E94B813E9
:10286000882311F089E2E0CF0E94FD128111FACF96
:10287000CE010E941F13812FDF91CF911F910F91E5
:1028800008950F931F93CF93DF93EC0189018D81FE
:10289000833039F089E0440F551F661F771F8A95F2
:1028A000D1F79A01AB0161E1CE010E94B8138823F0
:1028B00039F080E38883CE010E941F1310E00CC022
:1028C00040E052E0B801CE010E946913182F88231E
:1028D00091F3CE010E941F13812FDF91CF911F91A1
:1028E0000F910895EF92FF921F93CF93DF93FC0116
:1028F000208111E020FF14C0EC017C01F7E0EF0E15
:10290000F11C4B815C816D817E81E981FA819701A7
:10291000808191810E94FB13182F811108C010E063
:10292000812FDF91CF911F91FF90EF9008958881C3
:1029300081FD04C088818E7F8883F2CFE981FA818E
:102940004B815C816D817E8184859585A685B78567
:10295000480F591F6A1F7B1F9701808191810E9438
:10296000FB138111E7CFDBCFCF92DF92EF92FF9283
:102970001F93CF93DF93EC016A017B01122F8B81B0
:102980009C81AD81BE818C159D05AE05BF05B1F062
:10299000CE010E94721481110AC090E080E0DF91A4
:1029A000CF911F91FF90EF90DF90CF90089512FF8D
:1029B0000CC01882CB82DC82ED82FE82137088818B
:1029C000182B1883CE010796EACFE981FA819E0180
:1029D000295F3F4FB701A601808191810E94411478
:1029E0008111E7CFDACF8F929F92AF92BF92CF92B1
:1029F000DF92EF92FF920F931F931092F90E41E036
:102A000050E060E070E04093FC0E5093FD0E609348
:102A1000FE0E7093FF0E24EF3EE03093160F2093CE
:102A2000150F1092140F4FEF5FEFBA014093170F7D
:102A30005093180F6093190F70931A0F882309F49D
:102A400050C020E040E050E0BA0184E19FE00E94E5
:102A5000B414009761F480E01F910F91FF90EF9004
:102A6000DF90CF90BF90AF909F908F900895FC0122
:102A7000E254FE4F20812F7771F78A539E4FFC015D
:102A8000C080D180E280F380C114D104E104F1045C
:102A900011F320E0B701A60184E19FE00E94B41485
:102AA000FC01892BC1F2838594858115924099F6AA
:102AB0008089823081F686859785892B61F225850C
:102AC0002093F60E8FEF820F8093F70E80E091E057
:102AD000291769F08F5F893041F488E08093F80E00
:102AE000BACFC12CD12C7601D4CF990FF1CF8093DE
:102AF000F80E4689578970E060E04115510521F4D0
:102B000044A155A166A177A14093000F5093010FF6
:102B10006093020F7093030F268537854601570196
:102B2000820E931EA11CB11C8092080F9092090F77
:102B3000A0920A0FB0920B0F218932893093FB0EBD
:102B40002093FA0E440F551F661F771F480D591D1D
:102B50006A1D7B1D4093100F5093110F6093120F4D
:102B60007093130F21893289A5E0220F331FAA9594
:102B7000E1F721503E4F232F33272695420F531F55
:102B8000611D711D4093040F5093050F6093060F54
:102B90007093070F0389148930E020E001151105B7
:102BA00021F400A111A122A133A1C41AD50AE60A79
:102BB000F70AC00ED11EE21EF31E04C0F694E7947D
:102BC000D794C7948A95D2F7D701C6010196A11D63
:102BD000B11D80930C0F90930D0FA0930E0FB09327
:102BE0000F0F85EFC8168FE0D806E104F10420F43A
:102BF0008CE08093F90E2FCF80E125EFC2162FEFE6
:102C0000D206E104F10468F084A595A5A6A5B7A5B0
:102C10008093100F9093110FA093120FB093130F86
:102C200080E28093F90E81E017CF8F929F92AF924E
:102C3000BF92CF92DF92EF92FF920F931F93423099
:102C400051056105710560F480E01F910F91FF90BF
:102C5000EF90DF90CF90BF90AF909F908F900895AE
:102C6000FC01C08CD18CE28CF38CC416D506E60630
:102C7000F70650F3480159016A017B0185818032D2
:102C800041F584899589A689B78917E07695679576
:102C9000579547951A95D1F7480F591F6A1F7B1F03
:102CA00023E0CF0180960E94B414009769F2E89463
:102CB000C7F8DD24EE24FF24CC0CDD1CCC0CDD1C7D
:102CC0008C0D9D1DFC0180829182A282B38281E0E5
:102CD000BCCF803109F0B8CF44895589668977899E
:102CE0004D0D511D611D711D23E0CF0180960E9485
:102CF000B414009709F4A8CFDD24EE24FF24CC0CF3
:102D0000DD1CC80ED91EF60111830083E0CFCF92DF
:102D1000DF92EF92FF920F931F93CF93DF93423096
:102D200051056105710550F48FEFDF91CF911F912F
:102D30000F91FF90EF90DF90CF900895FC01C08C31
:102D4000D18CE28CF38CC416D506E606F70660F348
:102D500089016A017B01EC0185818032B9F58489A2
:102D60009589A689B789E7E0769567955795479540
:102D7000EA95D1F7480F591F6A1F7B1F22E0CE0149
:102D800080960E94B414009779F2E894C7F8DD2485
:102D9000EE24FF24CC0CDD1CCC0CDD1C8C0D9D1D09
:102DA000FC0180819181A281B381BF70488D598DD2
:102DB0006A8D7B8D481759076A077B0738F1F80140
:102DC00080839183A283B38381E0AFCF803109F008
:102DD000ABCF44895589668977894D0D511D611D99
:102DE000711D22E0CF0180960E94B414009709F46F
:102DF0009BCFDD24EE24FF24CC0CDD1CC80ED91E95
:102E0000F60180819181B0E0A0E0D0CF80E08DCF4D
:102E10009F92AF92BF92CF92DF92EF92FF920F9369
:102E20001F93CF93DF9300D01F92CDB7DEB75C0125
:102E30006A017B0119821A821B821C829E012F5F0C
:102E40003F4FB701A601C5010E948716982E87FD46
:102E500034C000E010E09801B701A601C5010E944E
:102E60001516882351F1F5014085518562857385DA
:102E70004C155D056E057F0550F0F1E0CF1AD108C5
:102E8000E108F108F501C086D186E286F386C980A3
:102E9000DA80EB80FC809110D1CF0F900F900F90D3
:102EA0000F90DF91CF911F910F91FF90EF90DF90E6
:102EB000CF90BF90AF909F90089580E0EECF0F939A
:102EC0001F93CF938C01262F862F6AE00E94FF6A02
:102ED000205DC22F96EF899FC00D112460E3680F1B
:102EE000D801ED91FC910190F081E02DC801199578
:102EF000D801ED91FC910190F081E02D6C2FC8017B
:102F0000CF911F910F911994FC019C01255F3F4FB8
:102F100080E080FB879587F99191890F2E173F07F5
:102F2000C1F708954F925F926F927F928F929F9216
:102F3000AF92BF92CF92DF92EF92FF920F931F93C7
:102F4000CF93DF93EC014A015B014C845D846E8476
:102F50007F84A881AA2309F486C0488959896A898F
:102F60007B89481559056A057B0569F08114910430
:102F7000A104B10451F41C861D861E861F86888A12
:102F8000998AAA8ABB8A81E073C0A3FF59C0088DC1
:102F9000198D2A8D3B8D081519052A053B0508F466
:102FA00062C0EE81FF81848190E009968A019B01D5
:102FB0000150110921093109082E04C036952795C1
:102FC000179507950A94D2F775016401B1E0CB1A01
:102FD000D108E108F10804C0F694E794D794C794A7
:102FE0008A95D2F7C016D106E206F30628F0452BE3
:102FF000462B472B09F052C0A6FF4BC0848D958D00
:10300000A68DB78D8C879D87AE87BF878E01045FA5
:103010001F4FC114D104E104F10409F4B0CF4C8571
:103020005D856E857F8598018E819F810E948716C0
:1030300091E0C91AD108E108F108181654F313C039
:10304000A5FFAFCFEE81FF818681978125E0880FB4
:10305000991F2A95E1F7B0E0A0E088159905AA0527
:10306000BB0508F08CCF4C865D866E867F8680E03F
:10307000DF91CF911F910F91FF90EF90DF90CF9054
:10308000BF90AF909F908F907F906F905F904F9088
:1030900008958C8D9D8DAE8DBF8DB4CFC01AD10A91
:1030A000E20AF30AB3CFCF93DF93DC01FC0190E097
:1030B00048E080E05EE221912032D1F0983031F496
:1030C000EB01C80FD11D58838F5F40E1EF012197BD
:1030D00028813FEB320F3A3130F41C963C911C971B
:1030E000342309F0205EEB01C80FD11D28838F5FC8
:1030F0009F5F9B3001F7680F711DFB011082DF910C
:10310000CF910895CF93DF93EC01262F4C895D89F1
:103110006E897F898E819F8180960E94B41400976A
:1031200071F02C813D812F70332745E0220F331F32
:103130004A95E1F7820F931FDF91CF91089590E0B8
:1031400080E0FACFCF93DF93FC012081211104C0EE
:1031500081E0DF91CF910895EC01828182FF27C049
:1031600061E0CF010E948218FC01892B29F489813A
:103170008160898380E0EDCF8081853EC1F38881C5
:1031800083FF08C0888D998DAA8DBB8D848F958F04
:10319000A68FB78F8C8D9D8D938F828F8C8D9D8DFB
:1031A000AE8DBF8DB58BA48B8A818B7F8A838E81F8
:1031B0009F8180960E9472148823C9F2C9CFCF9351
:1031C000DF93EC010E94A2181882DF91CF9108953D
:1031D0003F924F925F926F927F928F929F92AF92A7
:1031E000BF92CF92DF92EF92FF920F931F93CF93F4
:1031F000DF9300D01F92CDB7DEB74C01FC01828176
:1032000084608283A680B7804484558466847784F2
:10321000F501C084D184E284F384C414D504E604A7
:10322000F70410F011E003C07301620110E0FFEF3A
:10323000CF1ADF0AEF0AFF0AF501808D918DA28D6A
:10324000B38D8C159D05AE05BF0538F4111131C045
:10325000C084D184E284F384E5CF4C145D046E0411
:103260007F0439F19E012F5F3F4FB701A601C501D1
:103270000E94871687FD1DC08823C9F289819A8123
:10328000AB81BC81892B8A2B8B2B89F6112329F0EA
:10329000F501C086D186E286F3860FEF1FEF2FEF90
:1032A0003FE0B701A601C5010E941516382E811115
:1032B00018C0312C832D0F900F900F900F90DF913D
:1032C000CF911F910F91FF90EF90DF90CF90BF9023
:1032D000AF909F908F907F906F905F904F903F90B6
:1032E0000895411451046104710431F4F401C48659
:1032F000D586E686F786DECF97018601B301A20167
:10330000C5010E9415168111F1CFD3CF81E08093C2
:103310001A0808958091FA08823058F42091E8083C
:103320003091E9082F7D3E7F3093E9082093E8082B
:1033300014C01092E9081092E808883061F5909165
:10334000EE082FE531E0929FF001939FF00D1124DC
:10335000EF5AF54F9081911121C09091F20891118F
:1033600023C09091EE08913049F42091E808309103
:10337000E90831603093E9082093E808883009F0C3
:1033800044C08091E8089091E90884609093E9082E
:103390008093E8080895853091F2DFCF2091E80806
:1033A0003091E9082068C0CF923041F7069B09C0F0
:1033B0002091E8083091E90828603093E9082093CB
:1033C000E808823038F39091EE08913059F4029970
:1033D00009C02091E8083091E90831603093E9088C
:1033E0002093E8082FE531E0929FF001939FF00DC4
:1033F0001124ED5AF54F9081913009F0BFCF209103
:10340000E8083091E9082062B5CF863019F680913E
:10341000E8089091E9088064B9CF08951F93CF938D
:10342000DF93EC01162F8F81861711F081E08E83D8
:103430001F83E881F9810088F189E02D612FCE0199
:103440001995DC011296ED91FC918285EA81FB8150
:103450000584F685E02D8083812FDF91CF911F9128
:1034600008950F931F93CF938C01C0E0D801ED9185
:10347000FC910190F081E02DC8011995C817D4F492
:10348000D801ED91FC910088F189E02D6C2FC801E5
:103490001995D8011296ED91FC91A585B685FC0190
:1034A000228133819C91D9011A968C91981719F039
:1034B000CF5FDCCFCFEF8C2FCF911F910F9108956D
:1034C000CF93DF93EC018E81811112C0E881F981E5
:1034D0000088F189E02D6F81CE011995EA81FB8189
:1034E000A585B685EC01EA81FB818C9192858927BF
:1034F000DF91CF9108951F93CF93DF93EC01162FA7
:103500008F81861711F081E08E831F83E881F98116
:103510000088F189E02D612FCE011995DC0112960A
:10352000ED91FC9182859385EA81FB810584F68586
:10353000E02D91838083812FDF91CF911F9108959A
:103540000F931F93CF938C01C0E0D801ED91FC91B4
:103550000190F081E02DC8011995C817ECF4D8014D
:10356000ED91FC910088F189E02D6C2FC80119952F
:10357000D8011296ED91FC91A585B685FC0182815A
:1035800093812D913C91DC011A968D919C91281785
:10359000390719F0CF5FD9CFCFEF8C2FCF911F9183
:1035A0000F910895CF93DF93EC018E81811118C0A4
:1035B000E881F9810088F189E02D6F81CE011995AC
:1035C000EA81FB81A585B685EC01EA81FB8181E07A
:1035D0004D915C91228533854217530709F480E0B1
:1035E000DF91CF91089508958FEF9FEF089590E0B8
:1035F00080E00895089590E080E00895CF93DF93F0
:10360000EB0120E2FB013C96DC011C9601900D923F
:103610002A95E1F72A813B81FC01338322834C8187
:103620005D816E817F81448355836683778348857E
:1036300059856A857B854087518762877387DF91CB
:10364000CF91089522E636E0FC0131832083805F2C
:103650009E4F0C94DF1880E00895DC011D968D913B
:103660009C91DC01ED91FC910190F081E02D199489
:10367000DC011296ED91FC9182850895DC01129691
:10368000ED91FC91660F770B0384F485E02DE60F36
:10369000F71F808191810895CF92DF92EF92FF9280
:1036A0001F93CF93DF936130710519F569017A019A
:1036B000EC010E94311A11E0180FEA81FB8182852A
:1036C00018170CF010E0612FCE010E940E1A81E055
:1036D0008E83612FCE010E943E1BDC011296ED917C
:1036E000FC910190F081E02DA601B70181E090E00E
:1036F000199590E080E0DF91CF911F91FF90EF90BE
:10370000DF90CF90089590E080E00895FC0116824C
:10371000089580E008950C960C94A218FC0184850D
:1037200083FF17C084A195A1A6A1B7A1448D558D93
:10373000668D778D841B950BA60BB70B811520E842
:103740009207A105B10520F08FEF9FE7A0E0B0E060
:10375000089580E090E0DC01F1CFFC01148615862D
:103760001382128288EE93E0A0E0B0E08483958318
:10377000A683B7838BEA95E091838083089540E028
:1037800050E0BA010C949217CF92DF92EF92FF9221
:103790000F931F93CF93DF93EC018B018881998165
:1037A0000E94480F1D870C87FF24F394F986CE01F1
:1037B0000E946D12DC011696FC920115110549F16B
:1037C000C880D980D0E0C0E0F60180819181C8171F
:1037D000D907FCF40280F381E02DCE01880F991FF8
:1037E000E80FF91FE080F18070E060E0C701F801A8
:1037F0001995892B71F4D70118968C9180FF02C01E
:103800002196E2CF61E070E0C701F80119950197B8
:10381000B9F7DF91CF911F910F91FF90EF90DF905B
:10382000CF900895CF93DF93EC01EE85FF8581E083
:1038300086839F810280F381E02D828180FF3FC0DB
:10384000992361F191509F832C813D81A90165E00D
:103850009602400D511D1124CA01DA014C9164E019
:1038600070E00E947C0DCE010E946D1221E0FC01EF
:103870002683CE010E946D129F878E87DC011296EF
:10388000ED91FC91828184FF03C0CE010E94121C45
:1038900061E070E08FEFDF91CF91089589898823EF
:1038A00011F38C819D81FC01408164E070E00E94F5
:1038B0007C0D6A857B85CE010E94C41BD4CF2C81F0
:1038C0003D81A90165E09602400D511D1124CA01F8
:1038D000DA014C9164E070E00E947C0D8A819B814A
:1038E000DC01ED91FC910684F785E02D60E01995EF
:1038F000BACFAF92BF92CF92DF92EF92FF920F9327
:103900001F93CF93DF93EC010E947C12DC0114968D
:103910008D919C91892B09F4B1C0CE010E947C123B
:103920007C01DC01ED91FC91C084D184CE010E9428
:103930007C122F8115E04C815D812102400D511DCB
:1039400011249C0161E070E0C701F6011995892BF3
:1039500009F094C0CE010E947C127C01DC01129619
:10396000ED91FC91C280D3805601B2E0AB22BB2422
:103970002F818C819D812102800D911D1124FC01DC
:10398000408162E070E00E947C0D009709F056C013
:10399000C60183709927039709F05FC09F818E81CC
:1039A00098170CF044C0CE010E946D1201E0DC01BA
:1039B00016960C93CE010E947C122F812F5F2F83CD
:1039C000EC81FD812102E00DF11D112492838183A0
:1039D0001082CE010E946D12FC010683D701ED9189
:1039E000FC91A084B184CE010E947C122F814C8175
:1039F0005D812102400D511D11249C0162E070E0A7
:103A0000C701F501199502E010E0FF86EE8681E01E
:103A1000F7018683C0FC25C08A819B81DC01ED9182
:103A2000FC910684F785E02D61E019951AC063E5E5
:103A30007DE2CE010E94C41B00E0E6CF019769F44D
:103A4000CE010E947C12DC011296ED91FC918281E4
:103A500080FD03C0CE010E94121C02E010E0AB28E2
:103A6000A1F6B8018FEFDF91CF911F910F91FF90D9
:103A7000EF90DF90CF90BF90AF90089560E070E03E
:103A8000F1CF9F92AF92BF92CF92DF92EF92FF92CF
:103A90000F931F93CF93DF938C016A01EA01E62E07
:103AA000DC019C904330510509F480C0B0F44130F2
:103AB000510509F4CCC04230510509F4D1C0BE0112
:103AC0008E2DDF91CF911F910F91FF90EF90DF909E
:103AD000CF90BF90AF909F9008954430510509F466
:103AE0008EC0CA010797029750F767FDE8CFF8012B
:103AF000818192810E94750DE8160CF75601FE2C0B
:103B0000D80111968D919C91DC011296ED91FC915A
:103B10001397228133812C703327232B09F4A6C0FD
:103B200021E016962C93D80111964D915C91DA0103
:103B30001296ED91FC91868187FF07C00190F0817C
:103B4000E02DB80180E890E01995492D60E270E021
:103B5000C8010E947C0DF801F082F7E0CF1AD1086D
:103B6000E50182E0C816D10448F4D80113968D917E
:103B70009C910E94791CC62FD72FE82E4F2D60E113
:103B800070E0C8010E947C0DF80141815281DA0188
:103B90001296ED91FC91868186FF91CF0190F08184
:103BA000E02DB80180E490E0199589CFFC01818176
:103BB00092810E94750D882309F481CFFF24F3942C
:103BC000F90CD80111968D919C910E94750DF816F3
:103BD0007CF0F80181819281DC011296ED91FC91DB
:103BE000208520FD53C00E94750DFF24FA94F80E25
:103BF00033E0A32EB12C9F1083CFE50160CFFC01F1
:103C000081819281911007C0DC011296ED91FC91A7
:103C1000228124FD1CC00E94750D882309F44FCF1A
:103C2000FF24FA94F90CF7FE0FC0F801818192810C
:103C3000DC011296ED91FC91208520FF2CC00E94A2
:103C4000750DFF24FA94F80E94E0A92ED3CFF80155
:103C5000838194810E94121CC62FD72FE82E2FCF6C
:103C600013968D919C910E94791CF6CF692D0E942C
:103C70006E0DC1E0FC01C6836F2DD80111968D91A8
:103C80009C910E946E0DFC01C6834DCF23E0A22EB5
:103C9000B12CF12CB0CF84E0A82EFACFCF92DF92D6
:103CA000EF920F931F93CF93DF938C01EB01690188
:103CB000E42EDC01ED91FC910288F389E02D199549
:103CC00088836E2DA601CE010E94411D6B01D80193
:103CD000ED91FC910488F589E02D6881C801199562
:103CE000B2E0CB16D10459F48B819C81DF91CF9146
:103CF0001F910F91EF90DF90CF900C94121CDF91E9
:103D0000CF911F910F91EF90DF90CF900895CB014D
:103D1000642FA9010C94411D9F92AF92BF92CF9244
:103D2000DF92EF92FF920F931F93CF93DF939B014C
:103D3000482F6B01C0919E0DD0919F0D209709F4E3
:103D400043C0215031092230310508F0D2C0E09043
:103D5000920DF090930D10E000E0D7018D919C91B1
:103D60001197081719079CF41296ED91FC91C80160
:103D7000880F991FE80FF91F62E070E08081918140
:103D8000FE011995019719F00F5F1F4FE6CF1092B2
:103D90009F0D10929E0D82E99DE00E946D1221E020
:103DA000DC0116962C938091920D9091930DDF91EA
:103DB000CF911F910F91FF90EF90DF90CF90BF9028
:103DC000AF909F900C94480F8091990DC091960DE3
:103DD000D091970DB5E08B02C00DD11D1124CB0100
:103DE0000997029708F06EC0E090920DF090930D45
:103DF00010E000E0F70180819181081719070CF0AD
:103E000078C00280F381E02DC801880F991FE80F68
:103E1000F91FA081B181EB81FC8187811696ED911C
:103E2000FC911797082E000C990B9C01220F331F51
:103E3000220F331F0190F081E02DE20FF31FA380CA
:103E400014962D913C91820F931FDC01BC90992414
:103E50009A949B0C89819A81DC01ED91FC910190EF
:103E6000F081E02D1995BAE0CB16D104C1F099206C
:103E700099F02881422F022E000C550BBA94BA9467
:103E8000082E000C990B8B0D911DB7FC9A95841789
:103E9000950714F4215028830F5F1F4FABCF2A2DB5
:103EA000AA0C330B290D311D97FC3A95082E000CF6
:103EB000990B2817390784F788818B156CF78F5F6A
:103EC0008883EACF8091A00D9091A10DDC01ED9146
:103ED000FC910684F785E02DBE01DF91CF911F9103
:103EE0000F91FF90EF90DF90CF90BF90AF909F9099
:103EF0001994DF91CF911F910F91FF90EF90DF9078
:103F0000CF90BF90AF909F900895CF93DF93EC0137
:103F100060E08E810E949F0C61E08E810E949F0C68
:103F200060E08E810E949F0C8BE891E00197F1F791
:103F3000DF91CF910895CF92DF92EF92FF920F938E
:103F40001F93CF93DF936C017C0187E0E80EF11C97
:103F5000D0E0C0E0062F10E0B8010C2E02C075952D
:103F600067950A94E2F76170F70181917F010E94E1
:103F70009F0C2196C430D10579F7C601DF91CF910E
:103F80001F910F91FF90EF90DF90CF900C94851FC1
:103F9000CF92DF92EF92FF920F931F93CF93DF9315
:103FA000EC01F62E642F8C810E949F0C8D818F3F37
:103FB00019F060E00E949F0C0F2D10E08F8584FFA8
:103FC00025C06E0187E0C80ED11CF12CE12CB80190
:103FD0000E2C02C0759567950A94E2F76170F601A0
:103FE00081916F010E949F0CFFEFEF1AFF0A88E09A
:103FF000E816F10461F7CE01DF91CF911F910F9187
:10400000FF90EF90DF90CF900C94851FB80184E073
:10401000759567958A95E1F7CE010E949B1F6F2DDC
:10402000CE01DF91CF911F910F91FF90EF90DF9024
:10403000CF900C949B1F41E00E94C81F81E090E04C
:10404000089540E00C94C81FCF93DF93823029F489
:104050009091641398609093641380936813109206
:10406000691380E480936A1380E180936B1380E589
:1040700080936C1361E0809159130E94CD0C809164
:104080005A138F3F19F061E00E94CD0C61E08091DE
:104090005B130E94CD0CC5E5D3E19E01255533414C
:1040A0008091641384FD0BC084E090E02196281772
:1040B000390744F461E08E810E94CD0CEECF88E098
:1040C00090E0F4CF8BE39DE00197F1F760E0809101
:1040D00059130E949F0C60E080915B130E949F0C1B
:1040E00080915A138F3F19F060E00E949F0C6091FD
:1040F000641364FD41C063E085E593E10E949B1F6A
:10410000CBE4D6E4CE010197F1F763E085E593E1D6
:104110000E949B1F2197F1F763E085E593E10E94E0
:104120009B1F83E592E00197F1F762E085E593E15B
:104130000E949B1F60916413606285E593E10E9479
:10414000212084E0809365136CE085E593E10E9473
:10415000212061E085E593E10E9421208BE39FE12E
:104160000197F1F782E08093661366E085E593E1BD
:10417000DF91CF910C942120606285E593E10E944C
:1041800021208BE496E40197F1F76091641360625B
:1041900085E593E10E94212083E592E00197F1F704
:1041A00060916413606285E593E10E942120C2CF93
:1041B000443008F043E0FC012389421710F04FEF30
:1041C000420FFC01E40FF11D2489620F60680C941A
:1041D0002120DC011696ED91FC91B4E02B029001B8
:1041E00011240190F081E02DE20FF31F2081318135
:1041F000430F620FFC01858596850C94D820EF92C1
:10420000FF920F931F93CF93DF93EC01142FF22EA5
:104210008D859E85FC0160896E7F608B68600E9441
:1042200021208D859E85FC0160896D7F608B686093
:104230000E942120002391F04F2D612F8D859E85B6
:104240000E94D8208D859E85FC016089262FEE2056
:1042500069F02260208B6A600E94212080E0DF915B
:10426000CF911F910F91FF90EF9008952160208BC7
:104270006960F2CFCF93DF93EC0161E08D859E857D
:104280000E9421208BE39FE10197F1F7AE81BF816E
:1042900090E080E014962C911497022E000C330BC2
:1042A000821793076CF49C01220F331F1296ED9135
:1042B000FC911397E20FF31F118210820196EACF4F
:1042C000DF91CF9108950F931F93CF93DF93CDB7D5
:1042D000DEB7C055D1090FB6F894DEBF0FBECDBF13
:1042E0009E01245A3F4F6C964EAD5FAD6C9760E5D2
:1042F00070E0CE0101960E94306E8E010F5F1F4F5D
:10430000F80181918F01882379F08A3029F46DE0DA
:1043100085E593E10E941B20F8013197608185E5D6
:1043200093E10E941B20ECCFC05BDF4F0FB6F894E7
:10433000DEBF0FBECDBFDF91CF911F910F910895CA
:104340002F923F924F925F926F927F928F929F92A5
:10435000AF92BF92CF92DF92EF92FF920F931F9393
:10436000CF93DF9300D000D000D01F92CDB7DEB73F
:104370009E838D833B015A834983DC018C9183FFAB
:10438000EBC012968C9181FFE7C083FDD8C0E98114
:10439000FA81AF0170E060E0ED81FE818089918952
:1043A000A289B38980959095A095B09584179507BB
:1043B000A607B70708F4D0C0C980DA8022242A945F
:1043C000322C21013C96FC83EB83ED81FE814089F8
:1043D000518962897389C114D10409F47CC1868131
:1043E00097818A019B0169E0369527951795079576
:1043F0006A95D1F7DC011396EC910E237A01B1E0B6
:10440000FB2201111FC0ED81FE8144855585668523
:104410007785E114F10409F097C141155105610553
:10442000710509F4A4C02B813C810E94871687FD89
:1044300093C0811107C08D819E810E94E818882356
:1044400009F48AC0AD81BE811696ED91FC91179753
:104450001C964D915D916D917C911F974250510931
:1044600061097109848104C0440F551F661F771FBD
:104470008A95D2F780899189A289B389840F951F83
:10448000A61FB71FAC01BD01400F511D611D711D5D
:10449000E114F10429F4C114B2E0DB0608F088C08D
:1044A00080E092E08E199F0986018C159D0508F425
:1044B0008C01E114F104A1F4AD81BE8150968D9080
:1044C0009D90AD90BC90539758968D919D910D9075
:1044D000BC91A02D25E088169906AA06BB0608F413
:1044E00021E0CF0180960E94B4140097A9F1A801A1
:1044F000B3018E0D9F1D0E948E6DE00EF11EE11422
:10450000B2E0FB0649F4ED81FE81868197818096B9
:104510000E947214882301F1ED81FE8180899189C6
:10452000A289B389800F911FA11DB11D808B918B32
:10453000A28BB38B600E711EC01AD10A46CFAD811B
:10454000BE8158964D915D916D917C915B97CD01A7
:104550000E94921781111BCFAD81BE8111968C9163
:104560001197816011968C938FEF9FEFCDC0ED81F5
:10457000FE81848D958DA68DB78D0097A105B1051F
:1045800081F4CF010E94E818882331F3ED81FE8188
:1045900084859585A685B785848F958FA68FB78FDF
:1045A00051CFED81FE8184879587A687B7874ACF53
:1045B00083A194A1A5A1B6A1C11424E0D20608F458
:1045C00070C09601232F332726958280801A912C64
:1045D0002815390508F44901481759076A077B0768
:1045E00070F0880D991DA11DB11D481759076A0764
:1045F0007B0728F410A223A234A245A256A2AD81C3
:10460000BE811696ED91FC91E080F180F7018581E5
:10461000833039F099E0440F551F661F771F9A9534
:10462000D1F79A01AB0169E1C7010E94B813882351
:1046300051F083E3D7018C93C7010E941F13C70178
:104640000E941F1389CF530110E000E080ED97E036
:1046500008151905A1F00E940413811104C08BE50F
:10466000F7018083E9CFA5016CEFC7010E943413E5
:10467000882311F30F5F1F4FFEEFBF1AE7CF0E9491
:104680000413882351F0102F0027110F8DEF0E9483
:10469000F812C7010E941F133FCF86E5D7018C9304
:1046A000CECF481759076A077B0729F410A223A227
:1046B00034A245A256A2AD81BE811696ED91FC9121
:1046C0009301808191810E94FB13882309F444CFD8
:1046D00000E012E021CFED81FE81808D918DA28DD1
:1046E000B38D84179507A607B70738F48281408FEA
:1046F000518F628F738F84608283ED81FE8182810E
:1047000087FD1BC089819A812A960FB6F894DEBF77
:104710000FBECDBFDF91CF911F910F91FF90EF9012
:10472000DF90CF90BF90AF909F908F907F906F90D1
:104730005F904F903F902F9008958D819E810E94B1
:10474000A2188111DFCF08CFFC0142505109610945
:104750007109848104C0440F551F661F771F8A9515
:10476000D2F780899189A289B389480F591F6A1F9E
:104770007B1F96CE0C960C94A021CF93DF931F92B3
:10478000CDB7DEB7698341E050E0BE016F5F7F4F78
:104790000C960E94A0210F90DF91CF9108952F9247
:1047A0003F924F925F926F927F928F929F92AF92C1
:1047B000BF92CF92DF92EF92FF920F931F93CF930E
:1047C000DF9300D01F921F92CDB7DEB79D838C83FD
:1047D0001B014A01DC018C91882309F4EBC012967D
:1047E0009C91129790FFE6C083FF1AC058968D9156
:1047F0009D910D90BC91A02DEC81FD814089518946
:1048000062897389841B950BA60BB70BA40170E01A
:1048100060E0481759076A077B07C8F04C0117C0CA
:1048200085FF15C0AC81BD811696ED91FC9117975F
:104830008681978155E0880F991F5A95E1F7509628
:104840002D913C91821B930B8815990538F38401B7
:104850001982EC81FD813C96FB83EA8301151105E9
:1048600009F44CC1EC81FD8180899189A289B389C9
:104870005C01F1E0BF22EC81FD812081E680F780C0
:104880002C013D0149E076946794579447944A95EA
:10489000D1F7F70125FF33C0848D958DA68DB78D97
:1048A000480E591E6A1E7B1EAC81BD811696ED9185
:1048B000FC91A114B10409F088C00115B2E01B07F6
:1048C00008F483C043A154A165A176A144165506FE
:1048D0006606770609F479C0011524E0120708F08E
:1048E000A0C09101B301A201808191810E94411475
:1048F000882309F45FC0C12C82E0D82E7FC03381A9
:1049000034213983A114B10491F4311110C0892BE1
:104910008A2B8B2BC1F526FF33C0848D958DA68DF8
:10492000B78DEC81FD8184879587A687B787AC8199
:10493000BD811696ED91FC9117971C964D905D9058
:104940006D907C901F97B2E04B1A51086108710876
:10495000848104C0440C551C661C771C8A95D2F7D0
:1049600080899189A289B389840D951DA61DB71DE3
:104970002C013D01E9814E0E511C611C711C94CF2C
:10498000EC81FD81CACFAC81BD811C964D915D91BA
:104990006D917C911F972A813B81C7010E948716E8
:1049A00087FD08C08111C3CFEC81FD8180818077B4
:1049B00009F0A4C0AC81BD8111968C9111978260E1
:1049C00011968C938FEF9FEF9CC080E092E08A1944
:1049D0009B0968018017910708F46C0120E0B3017E
:1049E000A201CF0180960E94B414009719F3BC0174
:1049F0006A0D7B1DA601C1010E948E6D2C0C3D1C11
:104A0000EC81FD8180899189A289B3898C0D9D1DDE
:104A1000A11DB11D808B918BA28BB38B0C191D092D
:104A20001DCF6801CD2CDD24C694AC81BD818C9155
:104A300085FD08C08281B9818B1B90E08C159D0596
:104A400008F46C014416550666067706D0F4AC816E
:104A5000BD811696ED91FC91E080F180F701858192
:104A60008330F9F4A301920162E1C7010E94B813F7
:104A70008823F9F081E3D7018C93C7010E941F13AB
:104A800099CF4C0D5D1D611D711D441655066606BE
:104A90007706E8F6CF0180960E9472148111D7CF75
:104AA00089CF29E0440C551C661C771C2A95D1F748
:104AB000D9CF3101CA14DB0479F040E052E0B301F0
:104AC000C7010E946913882309F474CFBFEFAB1AA2
:104AD000BB0AEEEF7E1AEECF20E030E0A9016CE0D9
:104AE000C7010E94B813882311F088E2C4CFDC2CE0
:104AF000CC24DD0CC7010E941F1380CFC401801B92
:104B0000910B0F900F900F900F900F90DF91CF911E
:104B10001F910F91FF90EF90DF90CF90BF90AF90DB
:104B20009F908F907F906F905F904F903F902F90CD
:104B30000895EF92FF920F931F93CF93DF931F92ED
:104B4000CDB7DEB77C01962FF70140895189628984
:104B500073898A019B0185E03695279517950795FE
:104B60008A95D1F70F7011F091112BC041E050E000
:104B7000BE016F5F7F4FC7010E94CF23813051F08C
:104B800090E080E00F90DF91CF911F910F91FF9007
:104B9000EF900895F70180899189A289B3894F9692
:104BA000A11DB11D808B918BA28BB38BF7018681E8
:104BB00097818796F0E20F9F90011124820F931F37
:104BC000E1CF405E5F4F6F4F7F4F408B518B628BC9
:104BD000738BECCFCF93DF931F92CDB7DEB741E05D
:104BE00050E0BE016F5F7F4F0E94CF23019731F4E9
:104BF000898190E00F90DF91CF9108958FEF9FEF23
:104C0000F9CF0C960C94EA258F929F92AF92BF92A7
:104C1000CF92DF92EF92FF92CF93DF93EC018C8CD7
:104C20009D8CAE8CBF8CC88CD98CEA8CFB8C0C967E
:104C30000E94EA2597FD08C08C8E9D8EAE8EBF8E99
:104C4000C88ED98EEA8EFB8EDF91CF91FF90EF90C8
:104C5000DF90CF90BF90AF909F908F9008950E946B
:104C6000636DFB0101900020E9F73197AF01461B0E
:104C7000570BDC01ED91FC910280F381E02D19943A
:104C80008F929F92AF92BF920F931F93CF93DF9318
:104C9000CDB7DEB7A1970FB6F894DEBF0FBECDBF7C
:104CA00019A2423008F44AE08E010F5D1F4F842E96
:104CB000912CB12CA12CA50194010E94336BE62FFD
:104CC000B901CA01EA3004F5E05DD801EE938D0127
:104CD000232B242B252B79F790E080E0109729F0E7
:104CE000BD018BEB9CE00E943126A1960FB6F89493
:104CF000DEBF0FBECDBFDF91CF911F910F91BF904F
:104D0000AF909F908F900895E95CDFCF2F923F92F4
:104D10004F925F926F927F928F929F92AF92BF92CB
:104D2000CF92DF92EF92FF920F931F93CF93DF9377
:104D3000CDB7DEB764970FB6F894DEBF0FBECDBF18
:104D40009C8B8B8B2B01742EDB0113968D909C908A
:104D5000F40186859785DC011296ED91FC911397FD
:104D60002281338125703327232B09F053C0ED9125
:104D7000FC910680F781E02D00E020E04B895C8902
:104D80001995882321F1F20163817481DB011E965C
:104D90008D919C91DC01ED91FC91A480B580EB8913
:104DA000FC89A681B781F72D44E0F402900111241B
:104DB0000D90BC91A02DA20FB31F1296EC90C72CA2
:104DC000D2010C912B893C8941E0F5011995F20142
:104DD00081819281AB89BC891B969C938E931A9793
:104DE00080E064960FB6F894DEBF0FBECDBFDF91B2
:104DF000CF911F910F91FF90EF90DF90CF90BF90D8
:104E0000AF909F908F907F906F905F904F903F906A
:104E10002F900895D4011796AC90AA2051F0C401A8
:104E20000E946D12DC011296ED91FC91828182FD4F
:104E3000AA940A2C000CBB08EB89FC89E480F5805D
:104E4000EA0CFB1CD7010C91D2011196ED91FC915B
:104E50000280F381E02DC280D3801601B0E12B22C5
:104E60003324808581FD06C0F4011085112389F06B
:104E700082FD0EC02114310459F4672DAB89BC8921
:104E800016968D919C910E94AC0D11E082300CF42D
:104E900010E0C2FC28C0C12ED12CEB89FC8984858E
:104EA000882309F495C0D2012C910680F781E02D6A
:104EB000B72D34E0B302C00111240190F081E02D40
:104EC000E80FF91F61813381822F022E000C990BAC
:104ED000630F062E000C770B6C197D090E941F6B67
:104EE000281BD7012C93EB89FC89408540FDD3C05A
:104EF0000480F581E02DEA0DFB1D80818013CBC07D
:104F0000AB89BC891A968D919C911B97F2012181E6
:104F100032818217930709F0BEC01696ED91FC917D
:104F20000280F381E02D272D220F330BE20FF31FB8
:104F3000208131812415350509F0ADC041FDADC09A
:104F4000DC01ED91FC910680F781E02D00E021E08D
:104F50004B895C89B2011995F201A181B281169643
:104F60009C911697682E692A29F4EB89FC89808523
:104F700081FF36CF872C072C000C9908EB89FC8920
:104F800026813781C401880F991F880F991FF90165
:104F900020813181F901E80FF91F22812983111144
:104FA00048C1ED91FC9111970680F781E02D00E05A
:104FB00020E04B895C89B201CD011995811126C190
:104FC000611027C12114310409F48BC11A8292C1E6
:104FD000F20180814601880E911C87FD9A94AB896D
:104FE000BC891496ED90FC901597EA0CFB1CF70118
:104FF0006080672D16968D919C910E94AC0D082EB5
:10500000000C990B860D911D67FC9A9588169906E0
:1050100024F06394D7016C92DBCFAB89BC891496E2
:10502000ED91FC91EA0DFB1D9081F20180818917C1
:105030005CF4AB89BC891496ED91FC91EA0DFB1DE3
:10504000808181508083E9CF21813281992309F4C5
:105050004ACFC9010E94750DE82E880FFF08AB8961
:10506000BC891496ED91FC911597EA0DFB1D80818A
:10507000E81AF10887FDF394672D16968D919C919F
:105080000E94AC0D082E000C990B8C199D09E81696
:10509000F9067CF228CF81E05FCF80E05DCF21145C
:1050A000310409F41EC169E877E08B899C890E946C
:1050B00031268CCFDC01ED91FC910680F781E02D4B
:1050C00000E020E04B895C89B2011995811165C12E
:1050D000D3942EC12114310409F47DC02B813C816D
:1050E0008216930609F077C06DE277E08B899C8980
:1050F0000E943126F980EE24EA94EF0CF501248118
:105100003581AB89BC89ED91FC9111970488F589B3
:10511000E02D0D81412F61E070E0CD0119951E1445
:1051200014F5F20163817481D501ED91FC91048045
:10513000F581E02DC72C0D2D2B893C89412FC50110
:105140001995181684F42114310469F0EB81FC815F
:105150006EE877E08E169F0611F06CE277E08B899F
:105160009C890E9431262B813C818216930609F08E
:10517000AFCFAB89BC891696ED91FC918481082E46
:10518000000C990B2F853889281739070CF0A0CF10
:10519000D50112968D919C91DC0112968C9180FF25
:1051A00002C084FF1AC00280F381E02D2885398572
:1051B000E20FF31F80819181892B09F489CFAB899C
:1051C000BC89ED91FC9111970088F189E02D6C85E7
:1051D000CD0119957DCFF98055C1D20113966D91FE
:1051E0007C912C85A5018B899C890E94210EAB891D
:1051F000BC891696ED91FC910280F381E02D288503
:105200003985E20FF31F5182408262CF662009F494
:1052100046CF2114310409F046CFAB89BC89ED910A
:10522000FC9111970088F189E02D672DCD0119952A
:1052300058C061103AC12114310409F034CFAB8950
:10524000BC89ED91FC9111970488F589E02D00E06F
:1052500021E030E040E065E070E0CD011995AB89D8
:10526000BC89ED91FC9111970484F585E02DC12C4A
:10527000EE24E394F12C25E030E0472D60E0CD01F1
:105280001995AB89BC89ED91FC9111970488F5893A
:10529000E02D21E030E041E065E070E0CD011995BE
:1052A000AB89BC89ED91FC9111970288F389E02DBF
:1052B000272D40E060E0CD011995F20181819281B6
:1052C00063817481DC01ED91FC910480F581E02D16
:1052D000C72CE980EA94EA940FEF2B893C8941E0DE
:1052E0001995EB89FC8984819581A80EB91ED50199
:1052F000BC91BA83EFEF8E1A9E0A9401220F331FDE
:1053000039872887D12C412F50E05B874A878A81D3
:10531000082E000C990B9E878D87988A8F8691E0C6
:10532000970D9C87AA81AF5CA98BB981B350BA8BCA
:10533000ED2C0D2C000CFF082114310491F4672D85
:10534000EB89FC89868197810E94AC0D082E000CA8
:10535000990B2A853B85821B930BE816F9060CF006
:1053600036CD8D849E848E0C9F1CD20111968D911A
:105370009C910E94750D082E000C990B88169906B9
:105380000CF025CD6A816D0DF201818192810E9420
:105390006E0D5C01662009F48DCE2A853B852E0DAD
:1053A0003F1D3F832E83D2018C91E82F880FFF0B86
:1053B000FC83EB8311E08E169F0609F010E0F1E00C
:1053C000FD83D20111968D919C918A159B0509F060
:1053D0001D822114310401F5F501E480F580AB89CB
:1053E000BC89ED91FC9111970484F585E02DC12CC9
:1053F000012F30E020E0472D6E81CD011995AB895A
:10540000BC89ED91FC9111970288F389E02D272D3D
:105410004E8160E0CD011995F50124813581AB897C
:10542000BC89ED91FC9111970488F589E02D0D81DF
:10543000412F61E070E0CD011995D2011396ED91F5
:10544000FC91828D882309F445CE2114310409F0A2
:1054500045CEEB89FC89808582FFBDCE09890D0D83
:105460006BE5CF010E94D40A0A330CF00DE2602FE5
:105470008B899C890E94D40A6DE58B899C890E9446
:10548000D40AFA88D50114962D913C91AB89BC8938
:10549000ED91FC9111970688F789E02DE72C0D819D
:1054A000412F6E81CD01199526CE2114310409F0CA
:1054B000FACDAB89BC89ED91FC9111970088F189F7
:1054C000E02D672DCD011995BACE2F923F924F92C4
:1054D0005F926F927F928F929F92AF92BF92CF9284
:1054E000DF92EF92FF920F931F93CF93DF9300D041
:1054F0001F92CDB7DEB73C016B01B12CA12CD301BB
:105500008D919C911197A816B9060CF053C1129673
:10551000ED91FC91C501880F991FE80FF91FE080FC
:10552000F180F7018085918581729927892BA1F4FB
:1055300082859385892B09F09EC0D60113960D9024
:10554000BC91A02DBA83A9830E94610DE981FA81E3
:10555000648B758B868B978BD60113960D90BC91BF
:10556000A02DBA83A983CD010E946D12E981FA8131
:105570002781022E000C330BDC011296ED91FC9179
:10558000828182FF02C021503109B5E0B29FC00183
:10559000B39F900D1124E981FA8144805580480E13
:1055A000591ED7011696ED91FC91B481EB2F0E2E6A
:1055B000000CFF0B3197FC83EB832E173F0714F48D
:1055C0003C832B83D70118968C9183FF08C0EB8115
:1055D000FC81309709F498C03197FC83EB8310E08D
:1055E00000E0A9018B819C81481B590B5A83498398
:1055F000AB81BC810A171B070CF086C0F6016381E2
:10560000748189819A81800F911FF5E0F89F400194
:10561000F99F900C1124DB0114968D919C91880EBA
:10562000991E1801220C331CF701808581FF0DC0E3
:105630000680F781E02D0280F381E02DE20DF31D5D
:10564000808191818816990699F0D40111964D9127
:105650005C91202FC7010E94210ED7011696ED9173
:10566000FC910280F381E02DE20DF31D9182808296
:105670000F5F1F4FBDCFD60111968D919C91DC011C
:10568000ED91FC910680F781E02D00E021E0A7017B
:10569000B6011995811151CFD6011396ED91FC9168
:1056A0008189882369F1808D918D892B49F10E9430
:1056B000610DF6010380F481E02DFA83E98304890A
:1056C000158926893789601B710B820B930B28EE95
:1056D00033E040E050E00E94336BA981BA815896D4
:1056E0008D919C91B0E0A0E082179307A407B507C5
:1056F00038F4E981FA8162857385CF010E94C41B69
:105700003FEFA31AB30AFBCED7011696ED91FC9199
:10571000BB81B5834B2FB201C7010E9486260B8146
:105720001C81000F111FD7011696ED91FC9102808C
:10573000F381E02DE00FF11FD182C082EB81FC816B
:105740003296FA83E983D7011696ED91FC9117976B
:105750008481082E000C990B29813A81281739077A
:105760007CF6480134E0830E911C0280F381E02D29
:10577000E80DF91D80819181892B99F0ED91FC91C3
:105780000088F189E02D6981C7011995D701169626
:10579000ED91FC9182819381880E991EF401118212
:1057A000108229813A812F5F3F4F3A8329830E5F10
:1057B0001F4FC9CF1A821982D3018D919C91E98123
:1057C000FA81E817F907F4F4D60111968D919C91AE
:1057D0009F01220F331FD3011296ED91FC91E20F2E
:1057E000F31F40815181DC01ED91FC910280F38136
:1057F000E02D21E0B6011995E981FA813196FA830D
:10580000E983DACF80E00F900F900F900F90DF9137
:10581000CF911F910F91FF90EF90DF90CF90BF90AD
:10582000AF909F908F907F906F905F904F903F9040
:105830002F900895AF92BF92CF92EF92FF920F9365
:105840001F93CF93DF938C015B01E9014E2DDC01A7
:105850001296ED91FC9164817581E881F981008453
:10586000F185E02DC9011995F82ED8011296ED9118
:10587000FC9182819381857199274597A1F4F50167
:10588000878164817581F5E08F02600D711D11249F
:10589000DB0111968D919C910817190779F44C2D15
:1058A000CE010E9486268F2DDF91CF911F910F91FF
:1058B000FF90EF90CF90BF90AF9008952C2DA8014E
:1058C000B501CE010E94210EEECF6F927F928F9292
:1058D0009F92AF92BF92CF92DF92EF92FF920F937F
:1058E0001F93CF93DF93EC014B01D42E59011E2D52
:1058F0000E941A2CFE2CF81AE881F98164887588B8
:105900000288F389E02DCE011995682FCE01F301AD
:105910001995E82E812F012E000C990B8F199109F2
:10592000F7FC939597FD4FC0C4010E946D1260E291
:10593000C817D90709F46AE3D4011E968D909C908C
:10594000C5010E94D40AFA94CF2C01E0C815D905EC
:1059500009F000E02C813D81D501ED91FC91048896
:10596000F589E02D4D2D62E070E0C50119951F14F9
:10597000CCF4E881F9810088F189E02D6E2DCE010B
:105980001995DC011296ED91FC9164817581D50128
:10599000ED91FC910084F185E02D4F2DC501199505
:1059A000CF2CC81A812F8C19DF91CF911F910F91A5
:1059B000FF90EF90DF90CF90BF90AF909F908F902F
:1059C0007F906F90089580E0EFCF6F927F928F92DB
:1059D0009F92AF92BF92CF92DF92EF92FF920F937E
:1059E0001F93CF93DF93EC014B01D42E5901FE2C72
:1059F0000E941A2C182FE881F98164887588028822
:105A0000F389E02DCE011995682FCE01F301199588
:105A1000782E01E0D4011E968D919C918C179D07E4
:105A200009F000E02C813D81D501ED91FC910488C5
:105A3000F589E02D4D2D62E070E0C50119958F2D9F
:105A40000F2C000C990B811B910917FD93951816CB
:105A50001906CCF4E881F9810088F189E02D672DE1
:105A6000CE0119954F2D411BDC011296ED91FC9151
:105A700064817581D501ED91FC910084F185E02D63
:105A8000C5011995180F812FDF91CF911F910F91AB
:105A9000FF90EF90DF90CF90BF90AF909F908F904E
:105AA0007F906F9008956FE277E00E94312690E03A
:105AB00080E00895AF92BF92CF92DF92EF92FF9273
:105AC0000F931F93CF93DF936B01EA01FB01448196
:105AD00055814115510561F1FC0124813581211564
