:020000040000FA
:100000000C94210A0C9441550C9416550C94EB5405
:100010000C94C0540C9495540C946A540C943F5412
:100020000C9414540C94520A0C94520A0C94520AD4
:100030000C94520A0C94520A0C94520A0C94520AD0
:100040000C94520A0C94520A0C94520A0C94520AC0
:100050000C94520A0C94520A0C94520A0C94CA53EF
:100060000C94520A0C9494530C946A530C94520AB4
:100070000C94520A0C94520A0C94520A0C94520A90
:100080000C94520A0C94520A0C94520A0C94520A80
:100090000C94520A0C94520A0C94520A0C94520A70
:1000A0000C94520A0C94520A0C94520A0C94520A60
:1000B0000C94520A0C94520A0C94520A0C94520A50
:1000C0000C94520A0C94520A0C94520A0C94520A40
:1000D0000C94520A0C94520A0C94520A0C94520A30
:1000E0000C94520A0C9437100C9444240C94BF23A3
:1000F0000C944E1C0C944E120C94CD190C945E0D65
:100100000C94F3180C94F61A0C94204F0C949E192E
:100110000C944B2B0C94671A0C94EE470C94021021
:100120000C945E0C0C94D01B0C94072B0C941C0BA1
:100130000C94590C0C94620B0C94C94A0C943D0C11
:100140000C949D0F0C94DC520C94FF310C942C0CED
:100150000C94AF0B0C94FB1A0C94C64A0C94F850F8
:100160000C94681A0C94080B0C94F31A0C946528E0
:100170000C94201F0C9400530C9497550C94272B2F
:100180000C94D40F0C94330C0C94C10D0C94725F2E
:100190000C94EF280C94520F0C941A470C949C4B1F
:1001A0000C94550C0C94412B0C9478210C94F01A5F
:1001B0000C9491450C94C71B0C944B240C94484709
:1001C0000C94591F0C94630C0C9499470C94A24AFC
:1001D0000C942A2B0C949A1A0C94F90A0C94F81A81
:1001E0000C9403100C94C2230C94430C0C94DB0F5E
:1001F0000C94280C0C9443470C94540A0C943A1019
:100200000C94E8190C94C6410C94240C0C94390CF1
:100210000C94AF460C942A110C941E0C0C94924C26
:100220000C94342B0C94510C0C947B190C94CC0A28
:100230000C943E2B0C9465510C947E440C945F0CF2
:100240000C94981A0C943C480C94B91A0C94AB1A60
:100250000C94E4460C94C3440C94611A0C94601AF8
:100260000C945D310C94271C0C948F1A0C947A1901
:100270000C9442120C943F1A0C94A51A0C940D1A6B
:100280000C94470C0C944B0C0C947B210C94204642
:100290000C94E12A0C94513F0C94570A0C94844A14
:1002A0000C942A0B0C9461510C94300C0C94641A2D
:1002B00046726F6D20666F6C6465723A2025730A12
:1002C0000053656C65637465642066696C653A20EB
:1002D00025730A002E2E2E20494E495420636F6D3F
:1002E000706C6574650A0053656E64696E672049B9
:1002F0004E4954202E2E2E0A0052583A20257320A3
:1003000072785F786D69745F6573282530346F2962
:100310000A0A0052583A20494E4954206861732015
:100320002573636C656172656420743D256C756D21
:10033000730A0052583A2077616974696E672066C3
:100340006F7220494E495420746F20636C6561724E
:10035000202E2E2E20743D256C756D730A00525888
:100360003A20257320576F726425643A2025303374
:100370006F202530336F0A0052583A2025732057DA
:100380006F726425643A202530336F202530336F37
:100390000A0052583A20257320576F726425643A38
:1003A000202530336F202530336F0A0052583A2011
:1003B000257320576F726425643A202530336F20EF
:1003C0002530336F0A0052583A20257320706F731E
:1003D0003D256C752E206C656E3D25752E0A0052EC
:1003E000583A2025732074613D2530336F0A00523E
:1003F000583A2025732073613D2530336F0A00522F
:10040000583A202573207A65726F2066696C6C20DB
:10041000627566666572202530336F2E2E25303367
:100420006F0A000A000A00202530346F00202530B2
:10043000336F0052583A202573202530336F3A002D
:100440000A000A00202530346F00202530336F0069
:1004500052583A202573202530336F3A0052583ACB
:100460002025732077633D2530336F2057434F5647
:10047000460A0052583A2025732077633D253033D1
:100480006F0A0052583A20257320756E69743D2515
:100490006F2064656E3D25630A0052583A20636DF3
:1004A000643D2530346F0A000A002020202020728D
:1004B000782E6472765B25645D2E6C656E203D201F
:1004C00025752E0A00202020202072782E64727656
:1004D0005B25645D2E706F73203D20256C752E0AA0
:1004E0000020202020202072782E6472765B256404
:1004F0005D2E7361203D202530336F0A00202020BF
:1005000020202072782E6472765B25645D2E7461E3
:10051000203D202530336F0A0020202020207278D3
:100520002E6472765B25645D2E64656E203D202509
:10053000630A00202020202072782E6472765B25CA
:10054000645D2E726479203D2025630A00202020FE
:100550002072782E6472765B25645D2E6D6F646503
:10056000203D205225630A002020202072782E642E
:1005700072765B25645D2E6E616D65203D202725BA
:1005800073270A000A00202072782E66636E2E6E92
:10059000616D65203D2025730A00202072782E664B
:1005A000636E2E636F6465203D20256F0A00202056
:1005B000202072782E74696D696E67203D20256F4A
:1005C0000A002020202072782E657272636E7420DB
:1005D0003D2025752E0A002020202072782E636D84
:1005E00064636E74203D2025752E0A002020202093
:1005F000202072782E74797065203D205258302565
:10060000640A0020202020202072782E756E6974E4
:10061000203D20256F0A00202020202020207278F5
:100620002E64656E203D2025630A002020202020B6
:10063000202072782E6C656E203D2025752E0A00D4
:100640002020202020202072782E706F73203D20E3
:10065000256C752E0A002020202020202020727872
:100660002E7361203D202530336F0A00202020208A
:100670002020202072782E7461203D202530336F99
:100680000A00202020202020202072782E74632051
:100690003D202530336F0A002020202020202020FC
:1006A00072782E7763203D202530336F0A0020209A
:1006B00020202020202072782E6563203D202530C8
:1006C000346F0A00202020202020202072782E6500
:1006D00073203D202530346F0A0020202020202068
:1006E000202072782E6373203D202530366F0A005B
:1006F0000A00202020202020692F662072756E209D
:100700003D20256F0A002020202020692F662069C7
:100710006E6974203D20256F0A002020202020696A
:100720002F66206D6F6465203D2025730A00202010
:100730002020692F66207769647468203D20256435
:100740002E0A000A0A2D2D2D20525820456D756C59
:1007500061746F722053746174652044756D7020EC
:100760002D2D2D0A0A003F556E6B6E6F776E20633C
:100770006F6D6D616E643F0A000A4E6F74653A20BA
:10078000636861727320696E202829206172652078
:100790006F7074696F6E616C2E20436173652064A5
:1007A0006F6573206E6F74206D61747465722E0AAC
:1007B0000020206828656C7029202020202020201F
:1007C000202D2D20646973706C61792074686973C1
:1007D00020746578740A002020772872697465296E
:1007E000202020202020202D2D2077726974652064
:1007F00063757272656E7420636F6E666967757279
:100800006174696F6E20696E746F2074686520531F
:10081000455455502E494E492066696C650A0020A2
:10082000206B28696C6C2920202020202020202D7E
:100830002D206B696C6C2074686520656D756C612A
:10084000746F722028726573657420616E64207203
:100850006573746172742C206C696B6520726573AA
:10086000657420627574746F6E290A0020206928EF
:100870006E69742920202020202020202D2D206921
:100880006E697469616C697A6520656D756C6174F7
:100890006F7220286C696B6520756E6962757320B4
:1008A000494E4954290A002020702872696E742923
:1008B000202020202020202D2D207072696E742091
:1008C00066756C6C20656D756C6174696F6E2073F4
:1008D000746174650A0020207328686F77292020CE
:1008E0002020202020202D2D2073686F7720637515
:1008F0007272656E7420756E69742066696C656EBF
:10090000616D652061737369676E6D656E74730ADE
:100910000020206C286973742920202020202020AA
:10092000202D2D206C69737420616C6C2066696CBD
:100930006573206F6E207468652053442063617274
:10094000640A002020662046494C454E414D452012
:100950002020202D2D20657874656E642F747275AB
:100960006E636174652066696C652046494C454E2E
:10097000414D4520746F20646F75626C652064651D
:100980006E736974792073697A650A002020652086
:1009900046494C454E414D45202020202D2D2065B7
:1009A0007874656E642F7472756E63617465206609
:1009B000696C652046494C454E414D4520746F2079
:1009C00073696E676C652064656E736974792073F2
:1009D000697A650A002020722046494C454E414DF7
:1009E00045202020202D2D2072656D6F76652066B4
:1009F000696C652046494C454E414D450A00202012
:100A000020202020202020202020202020202020E6
:100A10002030206173206661737420617320706FD1
:100A2000737369626C653B20322073696D756C610C
:100A3000746573207265616C205258303220647284
:100A40006976650A0020207428696D696E6729201F
:100A50004E202020202D2D2074696D696E67206D39
:100A60006F64652C20303D666173742C20313D6DC0
:100A7000656469756D2C20323D6E6F726D616C3BE3
:100A80002064656661756C7420300A00202064283B
:100A90006562756729204E20202020202D2D20649E
:100AA00065627567206C6576656C2C20303D6E6FD5
:100AB0006E652C20333D6D61783B20646566617501
:100AC0006C7420310A00323D525830322B616E79FD
:100AD0003B2064656661756C7420320A0020206DCD
:100AE000286F646529204E2020202020202D2D20D5
:100AF00073657420656D756C6174696F6E206D6FC0
:100B000064652C20303D525830312B525831312CF5
:100B100020313D525830312B525838452C2000207E
:100B2000206E286F29204E20202020202020202DDC
:100B30002D2073657420756E6974204E2066696C73
:100B40006520726561642D6F6E6C790A00202079D2
:100B500028657329204E202020202020202D2D20A4
:100B600073657420756E6974204E2066696C65200B
:100B7000726561642D7772697465202864656661A9
:100B8000756C74290A00202020202020202020209D
:100B900020202020202020202066696C65206E61A6
:100BA0006D6520276E6F6E65272028616E79206342
:100BB0006173652920666F72206E6F206469736BA4
:100BC0002070726573656E740A00202031204649DA
:100BD0004C454E414D45202020202D2D207365741D
:100BE00020756E697420312066696C6520746F20F1
:100BF00046494C454E414D453B2064656661756CE8
:100C000074205258312E44534B0A002020202020BB
:100C10002020202020202020202020202020666945
:100C20006C65206E616D6520276E6F6E65272028CC
:100C3000616E7920636173652920666F72206E6F23
:100C4000206469736B2070726573656E740A00208E
:100C500020302046494C454E414D45202020202D36
:100C60002D2073657420756E697420302066696C60
:100C70006520746F2046494C454E414D453B2064EC
:100C8000656661756C74205258302E44534B0A00CF
:100C90000A436F6D6D616E647320617661696C618A
:100CA000626C653A0A0A002A2A2A2053484F554C9A
:100CB00044204E455645522047455420484552450C
:100CC0002A2A2A0A000A2A2A2A205265626F6F7489
:100CD000696E672074686520656D756C61746F72EC
:100CE000202A2A2A0A002E2E2E20494E49542063FB
:100CF0006F6D706C6574650A0053656E64696E672C
:100D000020494E4954202E2E2E0A005365747469D2
:100D10006E672074696D696E67206D6F64653A2037
:100D2000256420282573290A0043757272656E7444
:100D30002074696D696E67206D6F64653A20256463
:100D400020282573290A0053657474696E6720642E
:100D500065627567206D6F64653A202564202825DB
:100D600073290A0043757272656E7420646562753A
:100D700067206D6F64653A20256420282573290A51
:100D80000053657474696E6720656D756C61746974
:100D90006F6E206D6F64653A2025642028257329C5
:100DA0000A0043757272656E7420656D756C6174AE
:100DB000696F6E20747970653A2025642028257348
:100DC000290A0043757272656E742066696C655BF2
:100DD00025645D3A202725732720282573290A00DA
:100DE0004E6F20737563682066696C650A005265F2
:100DF0006D6F7665642066696C653A2027257327D8
:100E00000A0053657474696E672066696C655B25BA
:100E1000645D206D6F64653A2025730A0053657424
:100E200074696E672066696C655B25645D206D6F13
:100E300064653A2025730A005472756E63617465A7
:100E4000642066696C653A202725732720746F201B
:100E5000256C752E20627974657320284444290A14
:100E600000457874656E6465642066696C653A2037
:100E70002725732720746F20256C752E20627974C6
:100E8000657320284444290A00556E6368616E67C3
:100E900065642066696C653A20272573272069738D
:100EA00020256C752E2062797465732028444429AE
:100EB0000A00556E6368616E6765642066696C65DB
:100EC0003A202725732720697320256C752E206210
:100ED000797465732028757365204520636F6D6D87
:100EE000616E64290A005472756E636174656420D2
:100EF00066696C653A202725732720746F20256C5E
:100F0000752E20627974657320285344290A0045A0
:100F10007874656E6465642066696C653A2027257F
:100F2000732720746F20256C752E20627974657389
:100F300020285344290A00556E6368616E67656412
:100F40002066696C653A2027257327206973202560
:100F50006C752E20627974657320285344290A0029
:100F6000556E6368616E6765642066696C653A20DA
:100F70002725732720697320256C752E20627974CC
:100F800065732028757365204620636F6D6D616EF3
:100F900064290A0043757272656E742066696C6517
:100FA0005B25645D3A20272573270A005741524E7E
:100FB000494E473A2066696C652073697A6520441A
:100FC00044206D6F756E74656420696E206D6F646A
:100FD000652052583031210A005741524E494E4740
:100FE0003A2066696C652073697A65206E6F74209B
:100FF0005344206F72204444202E2E2E207573659A
:1010000020452F4620636F6D6D616E6420746F20E4
:10101000636F7272656374210A0053657474696E3C
:10102000672066696C655B25645D3A202725732718
:101030000A00557064617465642066696C653A20C5
:101040002725732720746F20256C752E20627974F4
:1010500065730A00557064617465642066696C6527
:101060003A202725732720746F20256C752E206267
:10107000797465730A000A005E550A0000002200B8
:10108000250028002B002E00310034000201000052
:10109000050108010B0100002000230026002900A3
:1010A0002C002F003200000100000301060109019D
:1010B00000000A0B02090C0D0E08070304010000D2
:1010C0000000000000000000000000000000000020
:1010D00000000000000000000000000012111000DD
:1010E0000000000000000000000000000000000000
:1010F0000000000000002C3058005344206572723C
:101100006F72436F64653A203058004E6F20636100
:1011100072642C2077726F6E672063686970207329
:10112000656C6563742070696E2C206F722053505B
:10113000492070726F626C656D3F0043616E277469
:101140002061636365737320534420636172642E6E
:1011500020446F206E6F74207265666F726D6174CB
:101160002E004E6F206572726F7220666F756E640E
:101170002E0043616E2774206F70656E20726F6F52
:1011800074206469726563746F72792E00496E769B
:10119000616C696420666F726D61742C2072656683
:1011A0006F726D61742053442E00000021002400F2
:1011B00027002A002D003000330001010000040147
:1011C00007010A0101021020200808102040102009
:1011D00040800201020108040201010204081020FB
:1011E00040808040201008040201800402018040F9
:1011F0002010080402010804020101020408102062
:1012000040800102040810204080050505050705FF
:1012100008080808020202020A0A08080404040472
:10122000010101010101010103030303030303039E
:10123000040707070C0C0C0C0C0C0C0C020202022D
:1012400006060606060606060B0B0B0B0B0B0B0B16
:1012500053443A20766F6C53697A654279746573AA
:101260003D256C754D420A0053443A20766F6C431D
:101270006C7573746572436F756E743D256C750A79
:101280000053443A20766F6C4279746573506572EE
:10129000436C75737465723D256C750A0053443A4E
:1012A00020766F6C547970653D46415425640A0080
:1012B00053443A206361726453697A653D256C75C5
:1012C0004D420A0053443A20636172645479706558
:1012D0003D534425640A0053443A206C69625665C4
:1012E0007273696F6E3D25642E25642E25640A0095
:1012F0002E2E2E2073657475702066696C652070C3
:10130000726F63657373696E6720636F6D706C6570
:101310007465210A0A0050726F63657373696E67A2
:101320002073657475702066696C652027257327A6
:10133000202E2E2E0A00496E697469616C697A61EB
:1013400074696F6E20636F6D706C6574652E0A0032
:101350004E6F2076616C6964204D6963726F5344EF
:1013600020636172642064657465637465642E0A29
:101370000056616C6964204D6963726F5344206349
:101380006172642064657465637465642E0A000A82
:101390005258303220456D756C61746F7220257320
:1013A00020284944452025752E25752E25752F6743
:1013B000636320257329202D202573202D2025737C
:1013C0000A005265494E495420427574746F6E206C
:1013D000507265737365640A002E2E2E20494E49A3
:1013E0005420636F6D706C6574650A0053656E649C
:1013F000696E6720494E4954202E2E2E0A00530A4A
:1014000000542025640A004D2025640A004420254C
:10141000640A0025632025640A0025642025730AD8
:101420000047656E65726174696E672073657475D7
:10143000702066696C6520272573270A0000975580
:10144000725F11241FBECFEFD1E2DEBFCDBF00E03F
:101450000CBF22E1ACEDB7E001C01D92A83EB2077F
:10146000E1F717E0A0E0B2E0EAE2FCEC00E00BBF3D
:1014700002C007900D92AC3DB107D9F71AE0C0E267
:10148000DAE000E006C021970109802FFE010E94EA
:101490002863CF31D10780E00807A9F70E94885A56
:1014A0000C9403660C94000090E080E0089590E0B6
:1014B00080E00895CF92DF92EF92FF929A016C0143
:1014C000EE24FF24CD28CE28CF2809F434C0DC0137
:1014D000CB0133E3839F8827030E811D202D939F2B
:1014E0009927800D911DA39FAA27900DA11DB39F41
:1014F000BB27A00DB11D1124280F891F9A1FAB1FF8
:10150000B11D290F8A1F9B1FA11DB11D2B0F811D0E
:10151000911DA11DB11DB695A79597958795279506
:101520003AE0239F212D1124BC01CD01205DFA0159
:101530002293AF01C3CFC90101976A307105E8F06A
:1015400033E3639F6627030E611D202D739F77276A
:10155000600D711D1124260F671F711D270F611D5E
:10156000711D7695679527953AE0239F212D1124CB
:10157000205DFC0120839C01DECF605DFC01608367
:10158000FF90EF90DF90CF900895DC01ED91FC91FA
:101590000190F081E02D1994AF92BF92CF92DF922B
:1015A000EF92FF920F931F93CF93DF936C017B0118
:1015B0008B01040F151FEB015E01AE18BF08C017A9
:1015C000D10759F06991D601ED91FC910190F0811C
:1015D000E02DC6011995892B79F7C501DF91CF91CF
:1015E0001F910F91FF90EF90DF90CF90BF90AF9041
:1015F0000895FC01538D448D252F30E0842F90E019
:10160000821B930B541710F0CF96089501970895FD
:10161000FC01918D828D981761F0A28DAE0FBF2FC6
:10162000B11D5D968C91928D9F5F9F73928F90E01C
:1016300008958FEF9FEF0895FC01918D828D98178B
:1016400031F0828DE80FF11D858D90E008958FEFC8
:101650009FEF0895FC01918D228D892F90E0805C91
:101660009F4F821B91098F739927089582E39CE015
:101670000E942A0B21E0892B09F420E0822F089593
:10168000FC01A48DA80FB92FB11DA35ABF4F2C91F7
:10169000848D90E001968F739927848FA689B789EE
:1016A0002C93A089B1898C91837080648C93938DE5
:1016B000848D981306C00288F389E02D80818F7D88
:1016C00080830895EF92FF920F931F93CF93DF9340
:1016D000EC0181E0888F9B8D8C8D98131AC0E8896E
:1016E000F989808185FF15C09FB7F894EE89FF893D
:1016F0006083E889F98980818370806480839FBFDB
:1017000081E090E0DF91CF911F910F91FF90EF90DA
:101710000895F62E0B8D10E00F5F1F4F0F731127EA
:10172000E02E8C8D8E110CC00FB607FCFACFE88925
:10173000F989808185FFF5CFCE010E94400BF1CF62
:10174000EB8DEC0FFD2FF11DE35AFF4FF0829FB799
:10175000F8940B8FEA89FB8980818062CFCFCF9389
:10176000DF93EC01888D8823B9F0AA89BB89E889C9
:10177000F9898C9185FD03C0808186FD0DC00FB66F
:1017800007FCF7CF8C9185FFF2CF808185FFEDCFED
:10179000CE010E94400BE9CFDF91CF91089580E008
:1017A00090E0892B29F00E94360B81110E940000E5
:1017B00080E090E0892B49F080E090E0892B29F0CF
:1017C0000E94000081110E94000080E090E0892BBF
:1017D00049F080E090E0892B29F00E9400008111FF
:1017E0000E94000080E090E0892B49F080E090E0CA
:1017F000892B29F00E94000081110C9400000895AB
:101800008150823108F05AC0E82FF0E08827E45F69
:10181000F34F8F4F0C9428632C0C300C1E0C240CAF
:10182000280C5E0C330C390C3D0C430C470C4B0C54
:10183000510C550C5E0C590C5F0C630C80918000B0
:101840008F77809380000895809180008F7DF9CFFD
:1018500080918000877FF5CF84B58F7784BD089510
:1018600084B58F7DFBCF8091B0008F778093B000DF
:1018700008958091B0008F7DF9CF809190008F778F
:10188000809390000895809190008F7DF9CF809192
:101890009000877FF5CF8091A0008F778093A00084
:1018A00008958091A0008F7DF9CF8091A000877F5F
:1018B000F5CF809120018F7780932001089580914A
:1018C00020018F7DF9CF80912001877FF5CFCF93C5
:1018D000DF93282F30E0F901E055FF4E8491F901A4
:1018E000EC53FE4ED491F901E65FFD4EC491CC233A
:1018F000A1F081110E94000CEC2FF0E0EE0FFF1F11
:10190000EA56FF4EA591B491EC91ED2381E090E071
:1019100009F480E0DF91CF91089580E090E0FACF64
:101920001F93CF93DF93282F30E0F901E055FF4E4E
:101930008491F901EC53FE4ED491F901E65FFD4E1E
:10194000C491CC23A9F0162F81110E94000CEC2F1A
:10195000F0E0EE0FFF1FE458FF4EA591B4918FB752
:10196000F894EC91111108C0D095DE23DC938FBF61
:10197000DF91CF911F910895DE2BF8CFCF93DF93A6
:1019800090E0FC01EC53FE4E2491865F9D4EFC01DD
:1019900084918823C9F090E0880F991FFC01E655D7
:1019A000FE4EA591B491FC01E458FF4EC591D4912F
:1019B00061110DC09FB7F8948C91209582238C9370
:1019C0008881282328839FBFDF91CF9108956230BB
:1019D00051F49FB7F8943C91822F809583238C9388
:1019E000E8812E2BEFCF8FB7F894EC912E2B2C9310
:1019F0008FBFEACF3FB7F8948091490890914A0889
:101A0000A0914B08B0914C0826B5A89B05C02F3F6C
:101A100019F00196A11DB11D3FBFBA2FA92F982F14
:101A20008827BC01CD01620F711D811D911D42E00F
:101A3000660F771F881F991F4A95D1F708958F92D7
:101A40009F92AF92BF92CF92DF92EF92FF926B0183
:101A50007C010E94FA0C4B015C01C114D104E10429
:101A6000F104B9F00E94FA0C681979098A099B09F6
:101A7000683E73408105910580F321E0C21AD108C8
:101A8000E108F10888EE880E83E0981EA11CB11CC5
:101A9000E4CFFF90EF90DF90CF90BF90AF909F90FA
:101AA0008F9008952FB7F89460914508709146087B
:101AB00080914708909148082FBF08950895DC0150
:101AC000ED91FC910088F189E02D1994DC01ED91F4
:101AD000FC910190F081E02D1994FF920F931F93D8
:101AE000CF93DF938C01EB01F42E642FDC01119670
:101AF0008D919C910E945F0DDC011296ED91FC91FD
:101B00001397268137812C233D23232B71F0ED91F0
:101B1000FC910284F385E02D2F2DA801BE01DF91F9
:101B2000CF911F910F91FF90199490E080E0DF9189
:101B3000CF911F910F91FF900895CF93DF93EC0108
:101B40002F81AC81BD81D5E02D02A00DB11D1124E6
:101B500011968D919C911297EC01E881F981008892
:101B6000F189E02D6C91DF91CF91199424E062020C
:101B7000B0011124DC01ED91FC91E60FF71F838188
:101B800008956F927F928F929F92AF92CF92DF9241
:101B9000EF92FF920F931F93CF93DF93EC01F62EFA
:101BA000EE81FF81662E660F7708C301880F991FAB
:101BB000880F991F0190F081E02DE80FF91F6081D7
:101BC000418182819381042E000C550B062E000C5E
:101BD000770B8A01090F111D97FD1A950150110904
:101BE0009B01280F311D87FD3A9521503109E8816D
:101BF000F9811F920284F385E02D88248394912C2F
:101C0000A12CD12CC12CB0E2EB2ECE011995E8818C
:101C1000F9810288F389E02D2F2D40E060E0CE01AC
:101C20001995EE81FF81660C771C82819381680E85
:101C3000791EF301118210820F90DF91CF911F91D5
:101C40000F91FF90EF90DF90CF90AF909F908F908B
:101C50007F906F9008952F923F924F925F926F9274
:101C60007F928F929F92AF92BF92CF92EF92FF920C
:101C70000F931F93CF93DF93EC012B015A01122F87
:101C8000E881F9810488F589E02D00E021E030E069
:101C900040E061E070E0199584E018021001112421
:101CA000D5011296ED91FC91828184FF5EC0912C4A
:101CB000812CD501ED91FC910190F081E02DC501C1
:101CC0001995082E000C990B881699060CF0D8C0AF
:101CD000D501ED91FC910088F189E02D682DC501B9
:101CE00019953C01FC0124813581E881F981048842
:101CF000F589E02D00E040E061E070E0CE0119954B
:101D0000D30114962D913C91E881F9810688F789D9
:101D1000E02DE12E40E0682DCE011995F3012481DC
:101D20003581E881F9810488F589E02D40E061E0A2
:101D300070E0CE011995D301ED91FC910480F581FD
:101D4000E02DAE81BF810D90BC91A02DA20DB31DE1
:101D50001296EC90C12E082D9E0140E0B201C30105
:101D60001995BFEF8B1A9B0AA4CFE881F9810088EF
:101D7000F189E02D612FCE011995E881F981028862
:101D8000F389E02D212F40E060E0CE011995712C00
:101D9000612F8E819F810E94B60D78160CF070C065
:101DA000D501ED91FC910190F081E02DC5011995CF
:101DB00078160CF065C0D501ED91FC910088F18991
:101DC000E02D672DC50119954C01FC01E480F580DB
:101DD000E881F9810484F585E02DC12C00E030E034
:101DE00020E0412F672DCE011995E881F981028805
:101DF000F389E02D212F472D60E0CE011995D40104
:101E000014962D913C91E881F9810488F589E02DA3
:101E100040E061E070E0CE011995F4012481358144
:101E2000E881F9810688F789E02DE12E40E0672DF1
:101E3000CE011995D40114962D913C91E881F98138
:101E40000488F589E02D40E061E070E0CE0119954D
:101E5000D401ED91FC910480F581E02DAE81BF812C
:101E60000D90BC91A02DA20DB31D1296EC90C12E29
:101E7000072D9E0140E0B201C4011995739488CFEB
:101E8000DF91CF911F910F91FF90EF90CF90BF9076
:101E9000AF909F908F907F906F905F904F903F900A
:101EA0002F9008955F926F927F928F929F92AF9240
:101EB000BF92CF92DF92EF92FF920F931F93CF9337
:101EC000DF93CDB7DEB76C01F62E572E4A013901EC
:101ED000081519050CF1D601ED91FC910288F389E2
:101EE000E02D20E0482D6F2DC6011995AF2CB52CA3
:101EF0006A147B046CF0D601ED91FC910190F081A5
:101F0000E02D6E2DC6011995BFEFAB1ABB0AF0CFBD
:101F10008FEF881A980ADCCFC601DF91CF911F910D
:101F20000F91FF90EF90DF90CF90BF90AF909F9078
:101F30008F907F906F905F900895EF92FF920F9334
:101F40001F93CF93DF93EC01F62EE42EE881F98105
:101F50000288F389E02D242F462F60E0199510E0C8
:101F600000E0EE81FF810190F081E02D8281082E5A
:101F7000000C990B081719073CF460E2CE010E948F
:101F8000C50A0F5F1F4FEDCFE881F9810288F38901
:101F9000E02D2E2D4F2D60E0CE01DF91CF911F91CE
:101FA0000F91FF90EF901994CF93DF93CDB7DEB7E9
:101FB000DF91CF910895EF92FF920F931F93CF93EC
:101FC000DF93EC01142F7901E881F9810488F58908
:101FD000E02D64E070E01995E881F9810190F081CD
:101FE000E02D60E2112331F06091D80CEF2811F060
:101FF0006091D70CCE01DF91CF911F910F91FF908F
:10200000EF9019940895BF92CF92DF92EF92FF92D2
:102010000F931F93CF93DF937C018B01B42EFB01B1
:10202000C42E440FDD08EF012196608161110EC0BE
:10203000C01BD10B8C2F8150DF91CF911F910F913D
:10204000FF90EF90DF90CF90BF900895BB2029F0D4
:10205000E01BF10BEC15FD055CF7D701ED91FC9150
:102060000190F081E02DC7011995FE01DCCF80E0E1
:10207000089508957F928F929F92AF92BF92CF92D0
:10208000DF92EF92FF920F931F93CF93DF93EC01B8
:102090005B017A01822E1E82EA81FB81828193811B
:1020A0006C0124E1C222DD24C114D10429F110E025
:1020B00000E0E881F9810190F081E02DCE011995D1
:1020C000082E000C990B081719070CF0B5C0E88111
:1020D000F9810088F189E02D602FCE011995DC018E
:1020E000ED91FC910280F381E02D20E0A701B50184
:1020F00019950F5F1F4FDDCFDB011396ED91FC911A
:102100009780B92D25E0B2028001112482FF13C00F
:1021100084819581B80165507109680F791FDB01D1
:1021200011968D919C91DC01ED91FC910280F381DF
:10213000E02D282D199560E0F701868197810E9496
:10214000B60DEA81FB8120853185D5011396ED918D
:10215000FC9191E021FD0CC09085992309F46AC09F
:102160003695279536952795B1E02B27922F9170BC
:1021700024813581020F131FD8011196ED91FC9136
:102180000280F381E02D42815381882009F454C0FC
:10219000292D990C330B4471552761E070E0452BD4
:1021A00011F470E060E0261B370BF7014481558184
:1021B000240F351FD9017C90882E891A082C000C19
:1021C0009908172D1C0DC814D904B4F5E881F981BC
:1021D0000190F081E02DCE01199518176CF5E8817A
:1021E000F9810088F189E02D612FCE011995DC017C
:1021F000ED91FC910280F381E02D20E0A701B50173
:102200001995E881F9810088F189E02D612FCE01CF
:102210001995DC01ED91FC910680F781E02D00E03D
:1022200020E0A701B5011995811106C0BFEFCB1AB7
:10223000DB0AC7CF90E09CCFDF91CF911F910F9128
:10224000FF90EF90DF90CF90BF90AF909F908F90D6
:102250007F9008953F924F925F926F927F928F92FC
:102260009F92AF92BF92CF92DF92EF92FF920F9325
:102270001F93CF93DF9300D01F92CDB7DEB7DC0161
:1022800016963C903110FBC0102F7A016B019C8395
:102290008B83FC010280F381E02DFA83E983828144
:1022A0009381AC0144715527452B79F1B12CA12CB8
:1022B000AB81BC81ED91FC9111970190F081E02DF3
:1022C000CD011995082E000C990BA816B9060CF033
:1022D0004DC0AB81BC81ED91FC9111970088F189D3
:1022E000E02D6A2DCD011995DC01ED91FC91068060
:1022F000F781E02D012F20E0A701B601199581118A
:10230000BEC0BFEFAB1ABB0AD3CFFB0141815281E4
:102310006B817C816417750749F5222339F183802D
:102320009480D40117960C91179714964D905C9059
:10233000B5E00B02300111245C01E4E0AE22BB24C5
:1023400082FF2BC0B30165507109640D751DDB015F
:1023500011968D919C91DC01ED91FC910680F781A5
:10236000E02D012F21E0A7011995382E832D0F9024
:102370000F900F900F90DF91CF911F910F91FF90D1
:10238000EF90DF90CF90BF90AF909F908F907F9015
:102390006F905F904F903F90089560E0F7018681C5
:1023A00097810E94B60DA981BA8118962D913C9112
:1023B00021FD61C0F4019085992309F45EC0369532
:1023C000279536952795F1E02F272170882E821AC0
:1023D000402F000F550B460C571CF201A181B28112
:1023E00012960D90BC91A02D12968D919C918471A6
:1023F000992721E030E0892B11F430E020E0CA0178
:10240000821B930BD7011496ED91FC91E80FF91FF5
:102410007080082C000C9908072D0A0DA814B90427
:102420000CF0A4CFAB81BC81ED91FC911197019090
:10243000F081E02DCD01199508170CF097CFAB81F5
:10244000BC81ED91FC9111970088F189E02D602FFE
:10245000CD011995DC01ED91FC910680F781E02D0D
:10246000012F20E0A701B6011995811108C0BFEF27
:10247000AB1ABB0AD1CF21E0A9CF20E0A7CF3324EC
:10248000339474CFDC01CB01BA011296ED91FC912B
:1024900013970190F081E02DAD011994FC01868124
:1024A0000895CF93DF93EC01E981FA8190818181D6
:1024B0009CBD8DBDE981FA8160E082810E94900C13
:1024C00081E08B83DF91CF9108958EBD0DB407FE1F
:1024D000FDCF08958FEF8EBD0DB407FEFDCF8EB5F5
:1024E00008950F931F93CF93DF93EC010E94520D39
:1024F0008B010E946A128F3F69F00E94520D601B8F
:10250000710BC617D707A8F780E0DF91CF911F9115
:102510000F91089581E0F9CFCF93DF93FC012381E0
:10252000222361F0EC010180F281E02D61E08281E3
:102530000E94900C8FEF0E9465121B82DF91CF9159
:1025400008950F931F93CF93DF938C01862FEA0199
:102550000E94651288818EBD8981FE013296DE5F00
:102560000DB407FEFDCF8EBDEC17FD0711F0819174
:10257000F7CF0DB407FEFDCF8FEF0E9465128FEFEE
:102580000E9465120E946A12F80184838F7185305F
:1025900059F087E58083C8010E948C1280E0DF91AA
:1025A000CF911F910F91089581E0F9CFCF92DF92E3
:1025B000EF92FF920F931F93CF93DF93EC018B0168
:1025C0007A010E94520D6B010E946A128C838F3F28
:1025D000B1F40E94520D6C197D09693E7340A0F35D
:1025E00085E58883CE010E948C1280E0DF91CF9137
:1025F0001F910F91FF90EF90DF90CF9008958E3F45
:1026000011F080E5EECFE1E0EE1AF1088FEF8EBD1C
:10261000F8012FEF0DB407FEFDCF8EB52EBD8193CF
:10262000CF01801B910B8E159F05A0F30DB407FE03
:10263000FDCF8EB50E0D1F1DF80180831C820E94F8
:102640006A120E946A1281E0D1CFDF92EF92FF926C
:102650000F931F93CF93DF938C01C62FD22FF32EAE
:10266000E42ED52EFC018381811103C0C8010E9494
:102670005112CC2321F08CE291E00E9471128C2F38
:1026800080640E9465128D2D0E9465128E2D0E941D
:1026900065128F2D0E9465128D2F0E94651287E8AA
:1026A000C11101C085E90E9465120E946A12CBE047
:1026B0000E946A12F801848387FF02C0C150C1F7EB
:1026C000DF91CF911F910F91FF90EF90DF900895D0
:1026D0000F931F93CF93DF93EC0189018D8183309A
:1026E00039F089E0440F551F661F771F8A95D1F78F
:1026F0009A01AB0168E1CE010E942513882339F0CD
:1027000082E38883CE010E948C1210E021C0A801D0
:102710006EEFCE010E94A1128823A1F380ED97E015
:102720000E947112182F8AE5112359F320E030E03E
:10273000A9016DE0CE010E942513882311F089E2E2
:10274000E0CF0E946A128111FACFCE010E948C1252
:10275000812FDF91CF911F910F9108950F931F93B8
:10276000CF93DF93EC0189018D81833039F089E0CB
:10277000440F551F661F771F8A95D1F79A01AB0149
:1027800061E1CE010E942513882339F080E388831C
:10279000CE010E948C1210E00CC040E052E0B80163
:1027A000CE010E94D612182F882391F3CE010E94E9
:1027B0008C12812FDF91CF911F910F910895EF928D
:1027C000FF921F93CF93DF93FC01208111E020FF44
:1027D00014C0EC017C01F7E0EF0EF11C4B815C8131
:1027E0006D817E81E981FA819701808191810E94CA
:1027F0006813182F811108C010E0812FDF91CF914D
:102800001F91FF90EF900895888181FD04C0888119
:102810008E7F8883F2CFE981FA814B815C816D8163
:102820007E8184859585A685B785480F591F6A1FC7
:102830007B1F9701808191810E9468138111E7CFEE
:10284000DBCFCF92DF92EF92FF921F93CF93DF9374
:10285000EC016A017B01122F8B819C81AD81BE81CD
:102860008C159D05AE05BF05B1F0CE010E94DF13AA
:1028700081110AC090E080E0DF91CF911F91FF901D
:10288000EF90DF90CF90089512FF0CC01882CB829A
:10289000DC82ED82FE8213708881182B1883CE01B2
:1028A0000796EACFE981FA819E01295F3F4FB70180
:1028B000A601808191810E94AE138111E7CFDACF0A
:1028C0008F929F92AF92BF92CF92DF92EF92FF9240
:1028D0000F931F931092700E41E050E060E070E0A3
:1028E0004093730E5093740E6093750E7093760E32
:1028F0002BE63EE030938D0E20938C0E10928B0EC3
:102900004FEF5FEFBA0140938E0E50938F0E60939E
:10291000900E7093910E882309F450C020E040E09F
:1029200050E0BA018BE89EE00E942114009761F408
:1029300080E01F910F91FF90EF90DF90CF90BF90BC
:10294000AF909F908F900895FC01E254FE4F20813C
:102950002F7771F78A539E4FFC01C080D180E280AF
:10296000F380C114D104E104F10411F320E0B701B4
:10297000A6018BE89EE00E942114FC01892BC1F284
:10298000838594858115924099F68089823081F6FD
:1029900086859785892B61F2258520936D0E8FEFB3
:1029A000820F80936E0E80E091E0291769F08F5FAF
:1029B000893041F488E080936F0EBACFC12CD12CBE
:1029C0007601D4CF990FF1CF80936F0E4689578946
:1029D00070E060E04115510521F444A155A166A1C4
:1029E00077A14093770E5093780E6093790E709391
:1029F0007A0E2685378546015701820E931EA11C4B
:102A0000B11C80927F0E9092800EA092810EB092A7
:102A1000820E218932893093720E2093710E440FF9
:102A2000551F661F771F480D591D6A1D7B1D40935A
:102A3000870E5093880E6093890E70938A0E2189B9
:102A40003289A5E0220F331FAA95E1F721503E4FAE
:102A5000232F33272695420F531F611D711D40936D
:102A60007B0E50937C0E60937D0E70937E0E0389D7
:102A7000148930E020E00115110521F400A111A115
:102A800022A133A1C41AD50AE60AF70AC00ED11E44
:102A9000E21EF31E04C0F694E794D794C7948A9577
:102AA000D2F7D701C6010196A11DB11D8093830EF7
:102AB0009093840EA093850EB093860E85EFC81672
:102AC0008FE0D806E104F10420F48CE08093700ECE
:102AD0002FCF80E125EFC2162FEFD206E104F104DB
:102AE00068F084A595A5A6A5B7A58093870E9093B9
:102AF000880EA093890EB0938A0E80E28093700EA8
:102B000081E017CF8F929F92AF92BF92CF92DF92C8
:102B1000EF92FF920F931F934230510561057105AB
:102B200060F480E01F910F91FF90EF90DF90CF90C5
:102B3000BF90AF909F908F900895FC01C08CD18C76
:102B4000E28CF38CC416D506E606F70650F348016E
:102B500059016A017B018581803241F5848995891B
:102B6000A689B78917E076956795579547951A9581
:102B7000D1F7480F591F6A1F7B1F23E0CF018096B2
:102B80000E942114009769F2E894C7F8DD24EE242E
:102B9000FF24CC0CDD1CCC0CDD1C8C0D9D1DFC0120
:102BA00080829182A282B38281E0BCCF803109F021
:102BB000B8CF44895589668977894D0D511D611DAE
:102BC000711D23E0CF0180960E942114009709F423
:102BD000A8CFDD24EE24FF24CC0CDD1CC80ED91EAA
:102BE000F60111830083E0CFCF92DF92EF92FF9244
:102BF0000F931F93CF93DF93423051056105710509
:102C000050F48FEFDF91CF911F910F91FF90EF90D4
:102C1000DF90CF900895FC01C08CD18CE28CF38CB6
:102C2000C416D506E606F70660F389016A017B0142
:102C3000EC0185818032B9F584899589A689B789A7
:102C4000E7E07695679557954795EA95D1F7480F50
:102C5000591F6A1F7B1F22E0CE0180960E9421141B
:102C6000009779F2E894C7F8DD24EE24FF24CC0C19
:102C7000DD1CCC0CDD1C8C0D9D1DFC018081918127
:102C8000A281B381BF70488D598D6A8D7B8D4817A5
:102C900059076A077B0738F1F80180839183A28383
:102CA000B38381E0AFCF803109F0ABCF4489558940
:102CB000668977894D0D511D611D711D22E0CF017F
:102CC00080960E942114009709F49BCFDD24EE2406
:102CD000FF24CC0CDD1CC80ED91EF6018081918129
:102CE000B0E0A0E0D0CF80E08DCF9F92AF92BF92B6
:102CF000CF92DF92EF92FF920F931F93CF93DF93C8
:102D000000D01F92CDB7DEB75C016A017B0119824A
:102D10001A821B821C829E012F5F3F4FB701A601C2
:102D2000C5010E94F415982E87FD34C000E010E024
:102D30009801B701A601C5010E948215882351F1AF
:102D4000F50140855185628573854C155D056E05DD
:102D50007F0550F0F1E0CF1AD108E108F108F50144
:102D6000C086D186E286F386C980DA80EB80FC805B
:102D70009110D1CF0F900F900F900F90DF91CF91C6
:102D80001F910F91FF90EF90DF90CF90BF90AF9089
:102D90009F90089580E0EECF0F931F93CF938C0107
:102DA000262F862F6AE00E94D262205DC22F96EF06
:102DB000899FC00D112460E3680FD801ED91FC914B
:102DC0000190F081E02DC8011995D801ED91FC9199
:102DD0000190F081E02D6C2FC801CF911F910F91D0
:102DE0001994FC019C01255F3F4F80E080FB879593
:102DF00087F99191890F2E173F07C1F708954F92D8
:102E00005F926F927F928F929F92AF92BF92CF927A
:102E1000DF92EF92FF920F931F93CF93DF93EC011A
:102E20004A015B014C845D846E847F84A881AA235F
:102E300009F486C0488959896A897B8948155905EA
:102E40006A057B0569F081149104A104B10451F471
:102E50001C861D861E861F86888A998AAA8ABB8A36
:102E600081E073C0A3FF59C0088D198D2A8D3B8D59
:102E7000081519052A053B0508F462C0EE81FF819B
:102E8000848190E009968A019B0101501109210972
:102E90003109082E04C036952795179507950A9491
:102EA000D2F775016401B1E0CB1AD108E108F1084D
:102EB00004C0F694E794D794C7948A95D2F7C016C5
:102EC000D106E206F30628F0452B462B472B09F0E6
:102ED00052C0A6FF4BC0848D958DA68DB78D8C8773
:102EE0009D87AE87BF878E01045F1F4FC114D10439
:102EF000E104F10409F4B0CF4C855D856E857F85D2
:102F000098018E819F810E94F41591E0C91AD10821
:102F1000E108F108181654F313C0A5FFAFCFEE81F6
:102F2000FF818681978125E0880F991F2A95E1F717
:102F3000B0E0A0E088159905AA05BB0508F08CCF84
:102F40004C865D866E867F8680E0DF91CF911F91F3
:102F50000F91FF90EF90DF90CF90BF90AF909F9038
:102F60008F907F906F905F904F9008958C8D9D8D86
:102F7000AE8DBF8DB4CFC01AD10AE20AF30AB3CF27
:102F8000CF93DF93DC01FC0190E048E080E05EE25B
:102F900021912032D1F0983031F4EB01C80FD11DCE
:102FA00058838F5F40E1EF01219728813FEB320F7B
:102FB0003A3130F41C963C911C97342309F0205E82
:102FC000EB01C80FD11D28838F5F9F5F9B3001F7F6
:102FD000680F711DFB011082DF91CF910895CF938F
:102FE000DF93EC01262F4C895D896E897F898E8164
:102FF0009F8180960E942114009771F02C813D8161
:103000002F70332745E0220F331F4A95E1F7820FD7
:10301000931FDF91CF91089590E080E0FACFCF9396
:10302000DF93FC012081211104C081E0DF91CF9169
:103030000895EC01828182FF27C061E0CF010E94E8
:10304000EF17FC01892B29F489818160898380E055
:10305000EDCF8081853EC1F3888183FF08C0888DD4
:10306000998DAA8DBB8D848F958FA68FB78F8C8DF0
:103070009D8D938F828F8C8D9D8DAE8DBF8DB58BE9
:10308000A48B8A818B7F8A838E819F8180960E9408
:10309000DF138823C9F2C9CFCF93DF93EC010E94DD
:1030A0000F181882DF91CF9108953F924F925F924F
:1030B0006F927F928F929F92AF92BF92CF92DF9248
:1030C000EF92FF920F931F93CF93DF9300D01F9245
:1030D000CDB7DEB74C01FC01828184608283A6807B
:1030E000B7804484558466847784F501C084D18494
:1030F000E284F384C414D504E604F70410F011E06C
:1031000003C07301620110E0FFEFCF1ADF0AEF0A7C
:10311000FF0AF501808D918DA28DB38D8C159D05D3
:10312000AE05BF0538F4111131C0C084D184E284EA
:10313000F384E5CF4C145D046E047F0439F19E01E5
:103140002F5F3F4FB701A601C5010E94F41587FD0F
:103150001DC08823C9F289819A81AB81BC81892BEA
:103160008A2B8B2B89F6112329F0F501C086D18695
:10317000E286F3860FEF1FEF2FEF3FE0B701A601C6
:10318000C5010E948215382E811118C0312C832D63
:103190000F900F900F900F90DF91CF911F910F9193
:1031A000FF90EF90DF90CF90BF90AF909F908F9067
:1031B0007F906F905F904F903F900895411451041D
:1031C0006104710431F4F401C486D586E686F7867D
:1031D000DECF97018601B301A201C5010E948215CD
:1031E0008111F1CFD3CF81E08093020808958091BF
:1031F0007108823058F420915F08309160082F7D6B
:103200003E7F3093600820935F0814C010926008DE
:1032100010925F08883061F5909165082FE531E0E4
:10322000929FF001939FF00D1124E853F64F908187
:10323000911121C090916908911123C09091650866
:10324000913049F420915F083091600831603093EB
:10325000600820935F08883009F044C080915F08BF
:103260009091600884609093600880935F0808954F
:10327000853091F2DFCF20915F083091600820689F
:10328000C0CF923041F7929B09C020915F083091E6
:10329000600828603093600820935F08823038F31C
:1032A00090916508913059F4309909C020915F08D8
:1032B0003091600831603093600820935F082FE5FB
:1032C00031E0929FF001939FF00D1124E653F64FE9
:1032D0009081913009F0BFCF20915F083091600854
:1032E0002062B5CF863019F680915F089091600812
:1032F0008064B9CF08951F93CF93DF93EC01162F0D
:103300008F81861711F081E08E831F83E881F98118
:103310000088F189E02D612FCE011995DC0112960C
:10332000ED91FC918285EA81FB810584F685E02D93
:103330008083812FDF91CF911F9108950F931F9369
:10334000CF938C01C0E0D801ED91FC910190F08108
:10335000E02DC8011995C817D4F4D801ED91FC915E
:103360000088F189E02D6C2FC8011995D8011296BB
:10337000ED91FC91A585B685FC01228133819C915C
:10338000D9011A968C91981719F0CF5FDCCFCFEF47
:103390008C2FCF911F910F910895CF93DF93EC0164
:1033A0008E81811112C0E881F9810088F189E02DB8
:1033B0006F81CE011995EA81FB81A585B685EC0167
:1033C000EA81FB818C9192858927DF91CF910895C5
:1033D0001F93CF93DF93EC01162F8F81861711F087
:1033E00081E08E831F83E881F9810088F189E02DD7
:1033F000612FCE011995DC011296ED91FC91828529
:103400009385EA81FB810584F685E02D9183808395
:10341000812FDF91CF911F9108950F931F93CF9329
:103420008C01C0E0D801ED91FC910190F081E02D7C
:10343000C8011995C817ECF4D801ED91FC910088EA
:10344000F189E02D6C2FC8011995D8011296ED91E4
:10345000FC91A585B685FC01828193812D913C91DB
:10346000DC011A968D919C912817390719F0CF5FCE
:10347000D9CFCFEF8C2FCF911F910F910895CF937C
:10348000DF93EC018E81811118C0E881F9810088F9
:10349000F189E02D6F81CE011995EA81FB81A58527
:1034A000B685EC01EA81FB8181E04D915C9122853A
:1034B00033854217530709F480E0DF91CF910895D7
:1034C00008958FEF9FEF089590E080E008950895AC
:1034D00090E080E00895CF93DF93EB0120E2FB01C1
:1034E0003C96DC011C9601900D922A95E1F72A8109
:1034F0003B81FC01338322834C815D816E817F811E
:103500004483558366837783488559856A857B859F
:103510004087518762877387DF91CF91089522E6B4
:1035200036E0FC0131832083805F9E4F0C944C1861
:1035300080E00895DC011D968D919C91DC01ED9158
:10354000FC910190F081E02D1994DC011296ED912F
:10355000FC9182850895DC011296ED91FC91660F35
:10356000770B0384F485E02DE60FF71F80819181AE
:103570000895CF92DF92EF92FF921F93CF93DF9344
:103580006130710519F569017A01EC010E949E19FB
:1035900011E0180FEA81FB81828518170CF010E00A
:1035A000612FCE010E947B1981E08E83612FCE01B5
:1035B0000E94AB1ADC011296ED91FC910190F08112
:1035C000E02DA601B70181E090E0199590E080E040
:1035D000DF91CF911F91FF90EF90DF90CF900895F2
:1035E00090E080E00895FC011682089580E008953F
:1035F0000C960C940F18FC01848583FF17C084A1DE
:1036000095A1A6A1B7A1448D558D668D778D841B9C
:10361000950BA60BB70B811520E89207A105B10504
:1036200020F08FEF9FE7A0E0B0E0089580E090E009
:10363000DC01F1CFFC01148615861382128288EE1C
:1036400093E0A0E0B0E084839583A683B7838BEA00
:1036500095E091838083089540E050E0BA010C9496
:10366000FF16CF93DF93EC0160E08E810E94900CF7
:1036700061E08E810E94900C60E08E810E94900C2F
:103680008BE891E00197F1F7DF91CF910895CF9208
:10369000DF92EF92FF920F931F93CF93DF936C0112
:1036A0007C0187E0E80EF11CD0E0C0E0062F10E0BE
:1036B000B8010C2E02C0759567950A94E2F7617007
:1036C000F70181917F010E94900C2196C430D105B1
:1036D00079F7C601DF91CF911F910F91FF90EF9085
:1036E000DF90CF900C94311BCF92DF92EF92FF923C
:1036F0000F931F93CF93DF93EC01F62E642F8C81F1
:103700000E94900C8D818F3F19F060E00E94900C18
:103710000F2D10E08F8584FF25C06E0187E0C80E55
:10372000D11CF12CE12CB8010E2C02C075956795C7
:103730000A94E2F76170F60181916F010E94900C8A
:10374000FFEFEF1AFF0A88E0E816F10461F7CE01F7
:10375000DF91CF911F910F91FF90EF90DF90CF906D
:103760000C94311BB80184E0759567958A95E1F753
:10377000CE010E94471B6F2DCE01DF91CF911F918B
:103780000F91FF90EF90DF90CF900C94471B41E09A
:103790000E94741B81E090E0089540E00C94741B3B
:1037A000CF92DF92EF920F93CF93DF936C01D42FE0
:1037B000C22FDC011D968D919C91FC0160896E7F6A
:1037C000608B68600E94CD1BD6011D968D919C91E7
:1037D000FC0160896D7F608B68600E94CD1B0023B7
:1037E00039F1D6011D968D919C91EC2FC43008F0D3
:1037F000E3E0DC0153962C91E21710F0EFEFE20FBB
:10380000E80FF92FF11D64896D0F60680E94CD1BD0
:10381000F60185859685EE2099F0DC0150966C9135
:103820005097262F226050962C936A600E94CD1BE1
:1038300080E0DF91CF910F91EF90DF90CF900895CE
:10384000FC016089262F2160208B6960EFCFDC01AD
:103850001696ED91FC91B4E02B0290011124019099
:10386000F081E02DE20FF31F2081E181DC011D9644
:103870008D919C91620FE40FE43008F0E3E0DC01ED
:1038800053962C91E21710F0EFEFE20FE80FF92FAB
:10389000F11D2489620F60680C94CD1BCF93DF93D8
:1038A000EC0161E08D859E850E94CD1B8BE39FE13D
:1038B0000197F1F7AE81BF8190E080E014962C91E2
:1038C0001497022E000C330B821793076CF49C01A3
:1038D000220F331F1296ED91FC911397E20FF31F05
:1038E000118210820196EACFDF91CF910895CF9295
:1038F000DF92EF92FF920F931F93CF93DF93EC0130
:103900008B01C880D980F12CE12CD6018D919C913E
:103910001197E816F906ACF4C701880F991F1296A3
:10392000ED91FC91E80FF91F80819181DC01ED910F
:10393000FC910684F785E02D1995BFEFEB1AFB0A81
:10394000E4CF1D870C8781E089879F81EC81FD8111
:1039500025E09202E00DF11D11240180F281E02D9D
:1039600086830115110551F1C880D980D0E0C0E0EF
:10397000D6018D919C911197C817D907FCF4129626
:10398000ED91FC91CE01880F991FE80FF91FE0809F
:10399000F18070E060E0C701F8011995892B71F49E
:1039A000D70118968C9180FF02C02196E1CF61E08B
:1039B00070E0C701F80119950197B9F7DF91CF9130
:1039C0001F910F91FF90EF90DF90CF900895CF93CC
:1039D000DF93EC01EE85FF8581E086838C819D81FC
:1039E0002F810280F381E02D328130FF3CC0222301
:1039F00059F121502F8335E02302800D911D1124B0
:103A0000DC014C9164E070E00E946D0D8F81EC81CF
:103A1000FD81B5E08B02E00DF11D11240180F281E2
:103A2000E02D81E08683FF87EE870280F381E02D21
:103A3000828184FF03C0CE010E94E71C61E070E038
:103A40008FEFDF91CF91089529892223F9F2FC01AC
:103A5000408164E070E00E946D0D6A857B85CE0137
:103A60000E94771CD3CFF5E02F02800D911D112409
:103A7000DC014C9164E070E00E946D0D8A819B81B5
:103A8000DC01ED91FC910684F785E02D60E019954D
:103A9000BDCFAF92BF92CF92DF92EF92FF920F9382
:103AA0001F93CF93DF93EC010E949D0DDC011496D0
:103AB0008D919C91892B09F4B3C0CE010E949D0D7C
:103AC0007C01DC01ED91FC91C084D184CE010E9487
:103AD0009D0D2F8115E04C815D812102400D511D0E
:103AE00011249C0161E070E0C701F6011995892B52
:103AF00009F096C0CE010E949D0D7C01DC0112965A
:103B0000ED91FC91C280D3805601B2E0AB22BB2480
:103B10002F818C819D812102800D911D1124FC013A
:103B2000408162E070E00E946D0D009709F058C07E
:103B3000C60183709927039709F061C08F819E8128
:103B400089170CF046C0EC81FD818102E00DF11D6A
:103B500011240180F281E02D01E00683CE010E9454
:103B60009D0DDC019F819F5F9F83EC81FD81910210
:103B7000E00DF11D1124B283A183108216960C93DF
:103B8000D701ED91FC91A084B184CE010E949D0DDE
:103B90002F814C815D812102400D511D11249C011A
:103BA00062E070E0C701F501199502E010E0FF86C0
:103BB000EE8681E0F7018683C0FC25C08A819B8167
:103BC000DC01ED91FC910684F785E02D61E019950B
:103BD0001AC064E474E2CE010E94771C00E0E6CFD4
:103BE000019769F4CE010E949D0DDC011296ED91C2
:103BF000FC91828180FD03C0CE010E94E71C02E09F
:103C000010E0AB28A1F6B8018FEFDF91CF911F91A3
:103C10000F91FF90EF90DF90CF90BF90AF900895FD
:103C200060E070E0F1CF9F92AF92BF92CF92DF92AF
:103C3000EF92FF920F931F93CF93DF938C016A0152
:103C4000EA01E62EDC019C904330510509F480C066
:103C5000B0F44130510509F4CCC04230510509F4AB
:103C6000D1C0BE018E2DDF91CF911F910F91FF909A
:103C7000EF90DF90CF90BF90AF909F900895443029
:103C8000510509F48EC0CA010797029750F767FDE6
:103C9000E8CFF801818192810E94660DE8160CF749
:103CA0005601FE2CD80111968D919C91DC01129643
:103CB000ED91FC911397228133812C703327232BB4
:103CC00009F4A6C021E016962C93D80111964D91C7
:103CD0005C91DA011296ED91FC91868187FF07C015
:103CE0000190F081E02DB80180E890E01995492D10
:103CF00060E270E0C8010E946D0DF801F082F7E00B
:103D0000CF1AD108E50182E0C816D10448F4D801E1
:103D100013968D919C910E94491DC62FD72FE82E96
:103D20004F2D60E170E0C8010E946D0DF8014181E6
:103D30005281DA011296ED91FC91868186FF91CF36
:103D40000190F081E02DB80180E490E0199589CFD1
:103D5000FC01818192810E94660D882309F481CF44
:103D6000FF24F394F90CD80111968D919C910E9437
:103D7000660DF8167CF0F80181819281DC011296C3
:103D8000ED91FC91208520FD53C00E94660DFF241B
:103D9000FA94F80E33E0A32EB12C9F1083CFE501E7
:103DA00060CFFC0181819281911007C0DC011296E5
:103DB000ED91FC91228124FD1CC00E94660D882398
:103DC00009F44FCFFF24FA94F90CF7FE0FC0F80165
:103DD00081819281DC011296ED91FC91208520FF7A
:103DE0002CC00E94660DFF24FA94F80E94E0A92ED0
:103DF000D3CFF801838194810E94E71CC62FD72F6F
:103E0000E82E2FCF13968D919C910E94491DF6CFDD
:103E1000692D0E945F0DC1E0FC01C6836F2DD801A2
:103E200011968D919C910E945F0DFC01C6834DCF30
:103E300023E0A22EB12CF12CB0CF84E0A82EFACF33
:103E4000CF92DF92EF920F931F93CF93DF938C016A
:103E5000EB016901E42EDC01ED91FC910288F3890C
:103E6000E02D199588836E2DA601CE010E94131EA8
:103E70006B01D801ED91FC910488F589E02D6881F2
:103E8000C8011995B2E0CB16D10459F48B819C81FD
:103E9000DF91CF911F910F91EF90DF90CF900C9415
:103EA000E71CDF91CF911F910F91EF90DF90CF90A2
:103EB0000895CB01642FA9010C94131E2F923F92F9
:103EC0004F925F926F927F928F929F92AF92BF922A
:103ED000CF92DF92EF92FF920F931F93CF93DF93D6
:103EE00000D000D000D01F92CDB7DEB79E838D8367
:103EF0003B015A834983DC018C9183FFEBC012960E
:103F00008C9181FFE7C083FDD8C0E981FA81AF01C0
:103F100070E060E0ED81FE8180899189A289B3899A
:103F200080959095A095B09584179507A607B7073B
:103F300008F4D0C0C980DA8022242A94322C2101CE
:103F40003C96FC83EB83ED81FE8140895189628937
:103F50007389C114D10409F47CC1868197818A01D7
:103F60009B0169E036952795179507956A95D1F7D6
:103F7000DC011396EC910E237A01B1E0FB220111D2
:103F80001FC0ED81FE814485558566857785E114E6
:103F9000F10409F097C1411551056105710509F456
:103FA000A4C02B813C810E94F41587FD93C0811130
:103FB00007C08D819E810E945518882309F48AC00C
:103FC000AD81BE811696ED91FC9117971C964D918F
:103FD0005D916D917C911F97425051096109710962
:103FE000848104C0440F551F661F771F8A95D2F73E
:103FF00080899189A289B389840F951FA61FB71F55
:10400000AC01BD01400F511D611D711DE114F10492
:1040100029F4C114B2E0DB0608F088C080E092E029
:104020008E199F0986018C159D0508F48C01E114F9
:10403000F104A1F4AD81BE8150968D909D90AD901C
:10404000BC90539758968D919D910D90BC91A02D49
:1040500025E088169906AA06BB0608F421E0CF01E0
:1040600080960E9421140097A9F1A801B3018E0D3A
:104070009F1D0E946165E00EF11EE114B2E0FB0697
:1040800049F4ED81FE818681978180960E94DF133D
:10409000882301F1ED81FE8180899189A289B3890C
:1040A000800F911FA11DB11D808B918BA28BB38BB3
:1040B000600E711EC01AD10A46CFAD81BE815896DE
:1040C0004D915D916D917C915B97CD010E94FF16A2
:1040D00081111BCFAD81BE8111968C9111978160AA
:1040E00011968C938FEF9FEFCDC0ED81FE81848D73
:1040F000958DA68DB78D0097A105B10581F4CF01EF
:104100000E945518882331F3ED81FE8184859585C1
:10411000A685B785848F958FA68FB78F51CFED81F8
:10412000FE8184879587A687B7874ACF83A194A10C
:10413000A5A1B6A1C11424E0D20608F470C096016E
:10414000232F332726958280801A912C2815390534
:1041500008F44901481759076A077B0770F0880D72
:10416000991DA11DB11D481759076A077B0728F43F
:1041700010A223A234A245A256A2AD81BE811696FA
:10418000ED91FC91E080F180F7018581833039F079
:1041900099E0440F551F661F771F9A95D1F79A0132
:1041A000AB0169E1C7010E942513882351F083E325
:1041B000D7018C93C7010E948C12C7010E948C12F8
:1041C00089CF530110E000E080ED97E00815190554
:1041D000A1F00E947112811104C08BE5F701808368
:1041E000E9CFA5016CEFC7010E94A112882311F34A
:1041F0000F5F1F4FFEEFBF1AE7CF0E947112882397
:1042000051F0102F0027110F8DEF0E946512C7018A
:104210000E948C123FCF86E5D7018C93CECF4817F2
:1042200059076A077B0729F410A223A234A245A2EA
:1042300056A2AD81BE811696ED91FC9193018081CD
:1042400091810E946813882309F444CF00E012E0B2
:1042500021CFED81FE81808D918DA28DB38D84174C
:104260009507A607B70738F48281408F518F628F78
:10427000738F84608283ED81FE81828187FD1BC004
:1042800089819A812A960FB6F894DEBF0FBECDBF02
:10429000DF91CF911F910F91FF90EF90DF90CF9022
:1042A000BF90AF909F908F907F906F905F904F9056
:1042B0003F902F9008958D819E810E940F1881114B
:1042C000DFCF08CFFC014250510961097109848197
:1042D00004C0440F551F661F771F8A95D2F7808947
:1042E0009189A289B389480F591F6A1F7B1F96CEF7
:1042F0000C960C945E1FCF93DF931F92CDB7DEB761
:10430000698341E050E0BE016F5F7F4F0C960E94D1
:104310005E1F0F90DF91CF9108952F923F924F92A1
:104320005F926F927F928F929F92AF92BF92CF9245
:10433000DF92EF92FF920F931F93CF93DF9300D002
:104340001F921F92CDB7DEB79D838C831B014A015C
:10435000DC018C91882309F4EBC012969C91129792
:1043600090FFE6C083FF1AC058968D919D910D90E5
:10437000BC91A02DEC81FD814089518962897389AE
:10438000841B950BA60BB70BA40170E060E04817E7
:1043900059076A077B07C8F04C0117C085FF15C095
:1043A000AC81BD811696ED91FC911797868197811E
:1043B00055E0880F991F5A95E1F750962D913C9141
:1043C000821B930B8815990538F384011982EC81BF
:1043D000FD813C96FB83EA830115110509F44CC16C
:1043E000EC81FD8180899189A289B3895C01F1E02A
:1043F000BF22EC81FD812081E680F7802C013D0108
:1044000049E076946794579447944A95D1F7F70119
:1044100025FF33C0848D958DA68DB78D480E591E0E
:104420006A1E7B1EAC81BD811696ED91FC91A11494
:10443000B10409F088C00115B2E01B0708F483C07D
:1044400043A154A165A176A14416550666067706D8
:1044500009F479C0011524E0120708F0A0C0910109
:10446000B301A201808191810E94AE13882309F4D7
:104470005FC0C12C82E0D82E7FC0338134213983C4
:10448000A114B10491F4311110C0892B8A2B8B2B0C
:10449000C1F526FF33C0848D958DA68DB78DEC8137
:1044A000FD8184879587A687B787AC81BD811696E5
:1044B000ED91FC9117971C964D905D906D907C90BE
:1044C0001F97B2E04B1A510861087108848104C03B
:1044D000440C551C661C771C8A95D2F780899189FB
:1044E000A289B389840D951DA61DB71D2C013D0120
:1044F000E9814E0E511C611C711C94CFEC81FD8131
:10450000CACFAC81BD811C964D915D916D917C911E
:104510001F972A813B81C7010E94F41587FD08C0BF
:104520008111C3CFEC81FD818081807709F0A4C027
:10453000AC81BD8111968C911197826011968C93FC
:104540008FEF9FEF9CC080E092E08A199B09680181
:104550008017910708F46C0120E0B301A201CF019C
:1045600080960E942114009719F3BC016A0D7B1DEF
:10457000A601C1010E9461652C0C3D1CEC81FD81EE
:1045800080899189A289B3898C0D9D1DA11DB11DC2
:10459000808B918BA28BB38B0C191D091DCF6801E9
:1045A000CD2CDD24C694AC81BD818C9185FD08C0E5
:1045B0008281B9818B1B90E08C159D0508F46C01FC
:1045C0004416550666067706D0F4AC81BD81169672
:1045D000ED91FC91E080F180F70185818330F9F461
:1045E000A301920162E1C7010E9425138823F9F01B
:1045F00081E3D7018C93C7010E948C1299CF4C0D97
:104600005D1D611D711D4416550666067706E8F6A8
:10461000CF0180960E94DF138111D7CF89CF29E087
:10462000440C551C661C771C2A95D1F7D9CF310153
:10463000CA14DB0479F040E052E0B301C7010E94E4
:10464000D612882309F474CFBFEFAB1ABB0AEEEF82
:104650007E1AEECF20E030E0A9016CE0C7010E9495
:104660002513882311F088E2C4CFDC2CCC24DD0C88
:10467000C7010E948C1280CFC401801B910B0F9048
:104680000F900F900F900F90DF91CF911F910F918E
:10469000FF90EF90DF90CF90BF90AF909F908F9062
:1046A0007F906F905F904F903F902F900895EF9282
:1046B000FF920F931F93CF93DF931F92CDB7DEB777
:1046C0007C01962FF70140895189628973898A019B
:1046D0009B0185E036952795179507958A95D1F723
:1046E0000F7011F091112BC041E050E0BE016F5FDF
:1046F0007F4FC7010E948D21813051F090E080E012
:104700000F90DF91CF911F910F91FF90EF9008953F
:10471000F70180899189A289B3894F96A11DB11DA6
:10472000808B918BA28BB38BF701868197818796C3
:10473000F0E20F9F90011124820F931FE1CF405EA2
:104740005F4F6F4F7F4F408B518B628B738BECCFE2
:10475000CF93DF931F92CDB7DEB741E050E0BE01AB
:104760006F5F7F4F0E948D21019731F4898190E026
:104770000F90DF91CF9108958FEF9FEFF9CF0C96B7
:104780000C94A8238F929F92AF92BF92CF92DF9208
:10479000EF92FF92CF93DF93EC018C8C9D8CAE8CCB
:1047A000BF8CC88CD98CEA8CFB8C0C960E94A823F9
:1047B00097FD08C08C8E9D8EAE8EBF8EC88ED98E12
:1047C000EA8EFB8EDF91CF91FF90EF90DF90CF903C
:1047D000BF90AF909F908F9008950E943665FB0127
:1047E00001900020E9F73197AF01461B570BDC0120
:1047F000ED91FC910280F381E02D19948F929F92AC
:10480000AF92BF920F931F93CF93DF93CDB7DEB7D5
:10481000A1970FB6F894DEBF0FBECDBF19A24230EC
:1048200008F44AE08E010F5D1F4F842E912CB12CAD
:10483000A12CA50194010E940663E62FB901CA01CB
:10484000EA3004F5E05DD801EE938D01232B242B93
:10485000252B79F790E080E0109729F0BD0182E3E5
:104860009CE00E94EF23A1960FB6F894DEBF0FBE26
:10487000CDBFDF91CF911F910F91BF90AF909F90CF
:104880008F900895E95CDFCF6DE277E00E94EF231F
:1048900090E080E008952F923F924F925F926F9246
:1048A0007F928F929F92AF92BF92CF92DF92EF92C0
:1048B000FF920F931F93CF93DF93CDB7DEB765972A
:1048C0000FB6F894DEBF0FBECDBF5C014B013D8B30
:1048D0002C8B4E2D1C2DDC011296ED91FC916481E8
:1048E0007581D901ED91FC910084F185E02DC9011C
:1048F00019958D87F50162817381DB011296CD9048
:10490000DC90C60185719927459709F05FC0F401D5
:10491000878145E0448055808402400C511C11245D
:10492000D20111968D919C911297A816B90609F0A3
:1049300061C213960D90BC91A02D1E968D919C91F5
:104940001F97FC0122813381F90122813381257077
:104950003327232B09F054C0DC01ED91FC91068034
:10496000F781E02D00E020E04C895D89B2011995C6
:10497000882319F1F20163817481DB011E968D9108
:104980009C91DC01ED91FC91A480B580EC89FD89BE
:10499000A681B781F4E01F02900111240D90BC9113
:1049A000A02DA20FB31F1296EC90C12ED2010C9134
:1049B0002C893D8941E0F5011995F20181819281AF
:1049C000AC89BD891B969C938E931A978D856596AD
:1049D0000FB6F894DEBF0FBECDBFDF91CF911F9110
:1049E0000F91FF90EF90DF90CF90BF90AF909F908E
:1049F0008F907F906F905F904F903F902F90089591
:104A000017968C911797882391F014962D913C91CD
:104A100015978402200D311D1124F9012181328165
:104A2000F90122813381F901928192FD8150A82EF2
:104A3000880FBB08EC89FD89E480F580EA0CFB1C3B
:104A4000F70100811601F0E12F223324FB0180855C
:104A500081FD06C018967C90772091F082FD0FC0F2
:104A60002114310461F4612FAC89BD8916968D91B2
:104A70009C910E94B60D7724739482300CF4712CB3
:104A8000C2FC27C0C72CD12CEC89FD8984858823E2
:104A900009F495C0D2012C910680F781E02DB4E095
:104AA0001B02C00111240190F081E02DE80FF91FD5
:104AB00061813381822F022E000C990B630F062E29
:104AC000000C770B6C197D090E94F262281BF7011C
:104AD0002083EC89FD89408540FDD1C00480F581AB
:104AE000E02DEA0DFB1D80810813C9C0AC89BD898A
:104AF0001A968D919C911B97F20121813281821728
:104B0000930709F0BCC01696ED91FC910280F381E9
:104B1000E02D212F220F330BE20FF31F2081318173
:104B20004216530609F0ABC041FDABC0DC01ED916C
:104B3000FC910680F781E02D00E021E04C895D8941
:104B4000B2011995F201A181B28116969C91169736
:104B5000892B8983811105C0EC89FD89808581FFBE
:104B600035CF812E012E000C9908EC89FD89268114
:104B70003781C401880F991F880F991FF90120817F
:104B80003181F901E80FF91FD28071104FC1ED9109
:104B9000FC9111970680F781E02D00E020E04C8920
:104BA0005D89B201CD01199581112CC1B981B11175
:104BB0002DC12114310409F492C11A8299C1D20184
:104BC0008C914601880E911C87FD9A94EC89FD8991
:104BD000E480F580EA0CFB1CD7016C90612F868184
:104BE00097810E94B60D082E000C990B860D911D21
:104BF00067FC9A958816990624F06394F701608201
:104C0000DECFAC89BD891496ED91FC91EA0DFB1DB8
:104C10009081F201808189175CF4AC89BD8914967A
:104C2000ED91FC91EA0DFB1D808181508083E9CFDD
:104C300021813281992309F44CCFC9010E94660D6C
:104C4000E82E880FFF08AC89BD891496ED91FC9180
:104C50001597EA0DFB1D8081E81AF10887FDF39492
:104C6000612F16968D919C910E94B60D082E000C16
:104C7000990B8C199D09E816F9067CF22ACF81E080
:104C800061CF80E05FCF2114310409F428C169E8C5
:104C900077E08C899D890E94EF238FCFDC01ED9115
:104CA000FC910680F781E02D00E020E04C895D89D1
:104CB000B2011995811170C1939437C12114310447
:104CC00009F47DC02B813C816216730609F077C020
:104CD0006AE677E08C899D890E94EF23FD2CEE2403
:104CE000EA94EF0CF50124813581AC89BD89ED9101
:104CF000FC9111970488F589E02D0D81482D61E024
:104D000070E0CD0119951E1414F5F20163817481D0
:104D1000D501ED91FC910480F581E02DC12E092D86
:104D20002C893D89482DC5011995181684F4211444
:104D3000310469F0EB81FC816EE877E06E167F0646
:104D400011F06CE277E08C899D890E94EF232B8122
:104D50003C816216730609F0AFCFAC89BD89169607
:104D6000ED91FC918481082E000C990B28893989DA
:104D7000281739070CF0A0CFD50112968D919C9180
:104D8000DC0112968C9180FF02C084FF1AC0028061
:104D9000F381E02D28853985E20FF31F8081918111
:104DA000892B09F489CFAC89BD89ED91FC911197CC
:104DB0000088F189E02D6C85CD0119957DCFFD2C02
:104DC00061C1D20113966D917C912C85A5018C89CE
:104DD0009D890E942B0EAC89BD891696ED91FC91A0
:104DE0000280F381E02D28853985E20FF31F51827F
:104DF000408262CF212FA501B4018C899D890E9438
:104E00002B0EE4CDE981EE2309F43DCF21143104CA
:104E100009F03DCFAC89BD89ED91FC9111970088D7
:104E2000F189E02D612FCD01199559C0F981F1115A
:104E30003CC12114310409F02ACFAC89BD89ED9120
:104E4000FC9111970488F589E02D00E021E030E025
:104E500040E065E070E0CD011995AC89BD89ED9128
:104E6000FC9111970484F585E02DC12CEE24E39488
:104E7000F12C25E030E0412F60E0CD011995AC899F
:104E8000BD89ED91FC9111970488F589E02D21E011
:104E900030E041E065E070E0CD011995AC89BD8955
:104EA000ED91FC9111970288F389E02D212F40E0CC
:104EB00060E0CD011995F201818192816381748155
:104EC000DC01ED91FC910480F581E02DC12E4EEFC7
:104ED000E42EED0C0FEF2C893D8941E01995EC890A
:104EE000FD8984819581A80EB91ED501BC91BA8334
:104EF000C4010196FC01EE0FFF1FF987E887912C92
:104F0000272D30E03B872A87AA810A2E000CBB0B95
:104F1000BF87AE87998B888BB1E0B10FBC87EA81E0
:104F2000EF5CEA8BFDEFFD0DFB8BE92C092C000CEF
:104F3000FF082114310499F4612FAC89BD891696BC
:104F40008D919C910E94B60D082E000C990BEA855C
:104F5000FB858E1B9F0BE816F9060CF02ECD6E8498
:104F60007F846E0C7F1CD20111968D919C910E94C2
:104F7000660D082E000C990B681679060CF01DCDF5
:104F80006A81690DF201818192810E945F0D5C014D
:104F9000F981FF2309F482CE2A853B852E0D3F1D22
:104FA0003F832E83D2018C91E82F880FFF0BFC8367
:104FB000EB83882483946E167F0609F0812CF1E040
:104FC000FD83D20111968D919C918A159B0509F064
:104FD0001D822114310401F5F501E480F580AC89CE
:104FE000BD89ED91FC9111970484F585E02DC12CCC
:104FF000082D30E020E0412F6E81CD011995AC895C
:10500000BD89ED91FC9111970288F389E02D212F44
:105010004E8160E0CD011995F50124813581AC897F
:10502000BD89ED91FC9111970488F589E02D0D81E2
:10503000482D61E070E0CD011995D2011396ED91F4
:10504000FC91828D882309F439CE2114310409F0B2
:1050500039CEEC89FD89808582FFB1CE0A89090DA0
:105060006BE5CF010E94C50A0A330CF00DE2602FF8
:105070008C899D890E94C50A6DE58C899D890E9455
:10508000C50AFB88D50114962D913C91AC89BD8948
:10509000ED91FC9111970688F789E02DE12E0D81A5
:1050A000482D6E81CD0119951ACE2114310409F0D5
:1050B000EECDAC89BD89ED91FC9111970088F18905
:1050C000E02D612FCD011995B8CE6F927F928F920E
:1050D0009F92AF92BF92CF92DF92EF92FF920F9387
:1050E0001F93CF93DF93EC014B01D42E59011E2D5A
:1050F0000E944B24FE2CF81AE881F9816488758897
:105100000288F389E02DCE011995682FCE01F301B5
:105110001995E82E812F012E000C990B8F199109FA
:10512000F7FC939597FD59C0D40117968C9117976A
:105130001496ED91FC91B5E08B02E00DF11D112468
:105140008181928160E2C817D90709F46AE3F4010A
:1051500086849784C5010E94C50AFA94CF2C01E089
:10516000C815D90509F000E02C813D81D501ED91EC
:10517000FC910488F589E02D4D2D62E070E0C501B9
:1051800019951F14CCF4E881F9810088F189E02D8C
:105190006E2DCE011995DC011296ED91FC91648182
:1051A0007581D501ED91FC910084F185E02D4F2DA5
:1051B000C5011995CF2CC81A812F8C19DF91CF9179
:1051C0001F910F91FF90EF90DF90CF90BF90AF9025
:1051D0009F908F907F906F90089580E0EFCF6F92B7
:1051E0007F928F929F92AF92BF92CF92DF92EF9277
:1051F000FF920F931F93CF93DF93EC014B01D42EBB
:105200005901FE2C0E944B24182FE881F9816488F3
:1052100075880288F389E02DCE011995682FCE019B
:10522000F3011995782E01E0D4011E968D919C9181
:105230008C179D0709F000E02C813D81D501ED918F
:10524000FC910488F589E02D4D2D62E070E0C501E8
:1052500019958F2D0F2C000C990B811B910917FDAF
:10526000939518161906CCF4E881F9810088F18924
:10527000E02D672DCE0119954F2D411BDC011296B3
:10528000ED91FC9164817581D501ED91FC910084D3
:10529000F185E02DC5011995180F812FDF91CF9170
:1052A0001F910F91FF90EF90DF90CF90BF90AF9044
:1052B0009F908F907F906F900895AF92BF92CF9202
:1052C000DF92EF92FF920F931F93CF93DF936B01C7
:1052D000EA01FB01448155814115510561F1FC0151
:1052E000248135812115310531F12417350718F155
:1052F000C217D30710F0E9012197FC010081118149
:10530000C801AA24AA94BB24BA947801EC0EFD1E0D
:10531000E816F906A0F0F601608171810E94B96576
:10532000009769F09C01201B310BC217D30708F0CE
:1053300059010196EDCFAA24AA94BB24BA94C501C1
:10534000DF91CF911F910F91FF90EF90DF90CF9061
:10535000BF90AF900895FC0124813581232B31F457
:1053600021E0FB01672B49F4822F08958081918110
:105370006115710539F421E0FC0180818823A1F3D6
:1053800020E0F2CF0E948F6521E0892B69F3F8CFEE
:105390000F931F93CF93DF93EC018881998100973E
:1053A00059F02A813B812617370730F081E0DF91E1
:1053B000CF911F910F9108958B016F5F7F4F0E94D6
:1053C0005564009759F0998388831B830A832C8145
:1053D0003D81232B59F7FC011082E8CF80E0E7CF15
:1053E000EF92FF920F931F93CF93DF936115710597
:1053F00041F480E0DF91CF911F910F91FF90EF90EA
:10540000089541155105B1F07B01EC010C811D811E
:10541000040F151FB8010E94C829882351F3288161
:1054200039818C819D81B701820F931F0E949865FD
:105430001D830C8381E0DECFCF93DF93EC01888165
:105440009981009711F00E94CC63198218821D8205
:105450001C821B821A82DF91CF910895EF92FF92F6
:105460000F931F93CF93DF93EC017B018A01BA0165
:105470000E94C82981110BC0CE010E941C2ACE01B6
:10548000DF91CF911F910F91FF90EF9008951D83B1
:105490000C83B701888199810E949865F0CFCF93E2
:1054A000DF93EC01FB018617970749F0608171815A
:1054B0006115710541F0448155810E942E2ACE016B
:1054C000DF91CF9108950E941C2AF9CFFC0111822F
:1054D000108213821282158214820C944F2AFC01CE
:1054E0001182108213821282158214826115710555
:1054F00051F0FB0101900020E9F73197AF01461B05
:10550000570B0C942E2A0895AF92BF92CF92DF9240
:10551000EF92FF920F931F93CF93DF937C016B0168
:105520005A0189012417350720F48B2D5901042FC6
:10553000182F6CE277E0C7010E946F2AD6011496FB
:10554000CD91DC91AC16BD0620F50C171D0708F4B3
:10555000E801D601ED91FC911197EC0FFD1F108130
:1055600010826D917C916A0D7B1D61157105E9F0CA
:10557000FB0101900020E9F73197AF01461B570B63
:10558000C7010E942E2AF60180819181C80FD91F80
:105590001883C701DF91CF911F910F91FF90EF907A
:1055A000DF90CF90BF90AF900895C7010E941C2A52
:1055B000EACFFC0180819181009711F00C94CC63BB
:1055C0000895EF92FF920F931F93CF93DF93EC0117
:1055D0008AE596E0998388837E018CECE81A8EEF49
:1055E000F80A61F08E010C501E4FE016F10631F002
:1055F00006501109C8010E94D92AF7CFCE01DF91C8
:10560000CF911F910F91FF90EF900C948F1ACF9331
:10561000DF93EC018AE696E09983888384E896E03C
:1056200098878F83CE01855F9D4F0E94D92ACE0136
:105630008B5F9D4F0E94D92ACE0181509E4F0E94C0
:10564000D92ACE010796DF91CF910C94E12A0797D2
:105650000C94072BCF93DF93EC010E948F1ACE019D
:10566000DF91CF910C94CC63CF93DF93EC010E9438
:10567000072BCE01DF91CF910C94CC6307970C944C
:10568000342BCF93DF93EC010E94E12ACE01DF910E
:10569000CF910C94CC63AF92BF92CF92DF92EF92F6
:1056A000FF920F931F93CF938C017B01CA01D80106
:1056B000ED91FC91A684B784DA01ED91FC9102840E
:1056C000F385E02D1995C82FD7011396ED91FC9124
:1056D000828DCC2E0C2E000CDD08882339F0B6010B
:1056E0008CE697E00E948465892B51F52091D90CB6
:1056F0003091DA0CF90190E080E042814C151D04F4
:10570000B9F4FC01EE0FFF1FE80FF91FE20FF31FC2
:10571000208131814FEFB701C801F501CF911F9171
:105720000F91FF90EF90DF90CF90BF90AF901994C2
:10573000019633968A30910501F720E030E0EACFF8
:105740004FEC4C0F27E030E0E6CFFC018081811167
:105750000FC080E2DF01982F1D929A95E9F77783B9
:105760006683DB0115969C91903129F0903211F0FF
:1057700080E0089580E4808381E082830895CF9360
:10578000DF93FC01DB0118964D915D916D917C9149
:105790001B97452B462B472B39F416966D917C9120
:1057A000DF91CF910C94A52B80E2EF0119928A959D
:1057B000E9F780E1808381E0828316968D919C9148
:1057C00017979783868318968D919D910D90BC9124
:1057D000A02D848F958FA68FB78F81E0DF91CF9119
:1057E00008954F925F926F927F928F929F92AF92A5
:1057F000BF92CF92DF92EF92FF920F931F93CF93BE
:10580000DF93CDB7DEB7A0970FB6F894DEBF0FBE1B
:10581000CDBF7C018B0119821A82DC018C91882317
:1058200009F4AFC013969C9191112BC08076F1F0D2
:105830008FE2FB018083118299249394892DA09695
:105840000FB6F894DEBF0FBECDBFDF91CF911F9191
:105850000F91FF90EF90DF90CF90BF90AF909F900F
:105860008F907F906F905F904F90089560E0C70198
:105870000E94EF17009709F486C0B8010E94C01774
:10588000DBCFB701CE0101960E94BF2B882309F41C
:1058900078C0CC24C394D12CB12CA12C3801FEEFBC
:1058A0006F0E711CD70113968C9113978C1508F409
:1058B00068C014964D915C914C195D0970E060E0F0
:1058C00085E0440F551F661F771F8A95D1F7CE01DB
:1058D00001960E94FF16982E882309F452C060E0BA
:1058E000CE0101960E945723FC01892B09F449C07F
:1058F00083858F3009F045C080818F71C81241C007
:10590000A8014A0D5B1D2F01950160E0D2016530B1
:1059100070F511968D919C91009799F02F3F31056C
:10592000D0F48F37910510F08FE390E02F5F3F4F59
:10593000DA018D93AD016F5FB2E04B0E511C6D30FB
:1059400029F72F3F310538F4808186FF04C0200FEE
:10595000311FD9011C92D3011C92BDE0AB0EB11CCA
:105960008FEFC81AD80A808186FF9CCF67CF6B3033
:1059700020F414968D919C91CFCF16968D919C9189
:10598000CBCFD8011C92912C59CFCF92DF92EF92BE
:10599000FF920F93CF93DF93EC0180E2DE011D9223
:1059A0008A95E9F7DB011696ED91FC911797FF8335
:1059B000EE835D834C835C96CD90DD90ED90FC9002
:1059C0005F97C886D986EA86FB864F705527DF0128
:1059D000979665E0440F551F6A95E1F7BD01640F86
:1059E000751FDB011B968C9183FD19C0CF01840FBD
:1059F000951FDC01D2968C9187718883DB011B9601
:105A00009C91987111F4886088830B83822F837036
:105A1000813009F449C030F0823009F443C0188263
:105A200080E038C081E08A838A8181FF03C0888159
:105A30008171A9F783A194A1A5A1B6A18C8B9D8B9F
:105A4000AE8BBF8BE40FF51F83AD94ADB0E0A0E04B
:105A50007C01DD24CC24AF014F5B5F4FDA014D9117
:105A60005C9170E060E0D701C601842B952BA62BDA
:105A7000B72B8C8F9D8FAE8FBF8FED5BFF4F40811B
:105A8000518162817381488F598F6A8F7B8F22FD8C
:105A90000DC081E0DF91CF910F91FF90EF90DF90EB
:105AA000CF90089583E0BFCF82E0BDCFCE010E94AA
:105AB000FF16882309F4B3CFECCF8F929F92AF9259
:105AC000BF92EF92FF920F931F93CF93DF93EC015E
:105AD0008881811117C061157105A1F0FB019081CA
